ARM GAS  /tmp/ccro5EIJ.s 			page 1


   1              		.syntax unified
   2              		.cpu cortex-m3
   3              		.fpu softvfp
   4              		.eabi_attribute 20, 1
   5              		.eabi_attribute 21, 1
   6              		.eabi_attribute 23, 3
   7              		.eabi_attribute 24, 1
   8              		.eabi_attribute 25, 1
   9              		.eabi_attribute 26, 1
  10              		.eabi_attribute 30, 2
  11              		.eabi_attribute 34, 1
  12              		.eabi_attribute 18, 4
  13              		.thumb
  14              		.file	"chmemcore.c"
  15              		.text
  16              	.Ltext0:
  17              		.cfi_sections	.debug_frame
  18              		.section	.text._core_init,"ax",%progbits
  19              		.align	2
  20              		.p2align 4,,15
  21              		.global	_core_init
  22              		.thumb
  23              		.thumb_func
  24              		.type	_core_init, %function
  25              	_core_init:
  26              	.LFB7:
  27              		.file 1 "../../os/kernel/src/chmemcore.c"
  28              		.loc 1 66 0
  29              		.cfi_startproc
  30              		@ args = 0, pretend = 0, frame = 0
  31              		@ frame_needed = 0, uses_anonymous_args = 0
  32              		@ link register save eliminated.
  33              		.loc 1 70 0
  34 0000 0949     		ldr	r1, .L2
  35              		.loc 1 71 0
  36 0002 40F2000C 		movw	ip, #:lower16:__heap_end__
  37              		.loc 1 70 0
  38 0006 40F20002 		movw	r2, #:lower16:.LANCHOR0
  39              		.loc 1 71 0
  40 000a 40F20003 		movw	r3, #:lower16:.LANCHOR1
  41 000e C0F2000C 		movt	ip, #:upper16:__heap_end__
  42              		.loc 1 70 0
  43 0012 21F00700 		bic	r0, r1, #7
  44 0016 C0F20002 		movt	r2, #:upper16:.LANCHOR0
  45              		.loc 1 71 0
  46 001a C0F20003 		movt	r3, #:upper16:.LANCHOR1
  47 001e 2CF00701 		bic	r1, ip, #7
  48              		.loc 1 70 0
  49 0022 1060     		str	r0, [r2, #0]
  50              		.loc 1 71 0
  51 0024 1960     		str	r1, [r3, #0]
  52              		.loc 1 77 0
  53 0026 7047     		bx	lr
  54              	.L3:
  55              		.align	2
  56              	.L2:
  57 0028 07000000 		.word	__heap_base__+7
ARM GAS  /tmp/ccro5EIJ.s 			page 2


  58              		.cfi_endproc
  59              	.LFE7:
  60              		.size	_core_init, .-_core_init
  61 002c AFF30080 		.section	.text.chCoreAlloc,"ax",%progbits
  62              		.align	2
  63              		.p2align 4,,15
  64              		.global	chCoreAlloc
  65              		.thumb
  66              		.thumb_func
  67              		.type	chCoreAlloc, %function
  68              	chCoreAlloc:
  69              	.LFB8:
  70              		.loc 1 91 0
  71              		.cfi_startproc
  72              		@ args = 0, pretend = 0, frame = 0
  73              		@ frame_needed = 0, uses_anonymous_args = 0
  74              		@ link register save eliminated.
  75              	.LVL0:
  76              	.LBB6:
  77              		.loc 1 94 0
  78 0000 2023     		movs	r3, #32
  79              	.LVL1:
  80              	@ 94 "../../os/kernel/src/chmemcore.c" 1
  81 0002 83F31188 		msr     BASEPRI, r3
  82              	@ 0 "" 2
  83              	.LVL2:
  84              		.thumb
  85              	.LBE6:
  86              	.LBB7:
  87              	.LBB8:
  88              		.loc 1 118 0
  89 0006 40F20003 		movw	r3, #:lower16:.LANCHOR0
  90              	.LVL3:
  91 000a 40F2000C 		movw	ip, #:lower16:.LANCHOR1
  92 000e C0F20003 		movt	r3, #:upper16:.LANCHOR0
  93 0012 C0F2000C 		movt	ip, #:upper16:.LANCHOR1
  94 0016 1A68     		ldr	r2, [r3, #0]
  95 0018 DCF80010 		ldr	r1, [ip, #0]
  96              		.loc 1 117 0
  97 001c 0730     		adds	r0, r0, #7
  98              	.LVL4:
  99 001e 20F00700 		bic	r0, r0, #7
 100              	.LVL5:
 101              		.loc 1 118 0
 102 0022 891A     		subs	r1, r1, r2
 103 0024 8842     		cmp	r0, r1
 104              	.LVL6:
 105              		.loc 1 121 0
 106 0026 9ABF     		itte	ls
 107 0028 1018     		addls	r0, r2, r0
 108              	.LVL7:
 109 002a 1860     		strls	r0, [r3, #0]
 110              		.loc 1 119 0
 111 002c 0022     		movhi	r2, #0
 112              	.LBE8:
 113              	.LBE7:
 114              	.LBB9:
ARM GAS  /tmp/ccro5EIJ.s 			page 3


 115              		.loc 1 96 0
 116 002e 0023     		movs	r3, #0
 117              	.LVL8:
 118              	@ 96 "../../os/kernel/src/chmemcore.c" 1
 119 0030 83F31188 		msr     BASEPRI, r3
 120              	@ 0 "" 2
 121              	.LVL9:
 122              		.thumb
 123              	.LBE9:
 124              		.loc 1 98 0
 125 0034 1046     		mov	r0, r2
 126 0036 7047     		bx	lr
 127              		.cfi_endproc
 128              	.LFE8:
 129              		.size	chCoreAlloc, .-chCoreAlloc
 130 0038 AFF30080 		.section	.text.chCoreAllocI,"ax",%progbits
 130      AFF30080 
 131              		.align	2
 132              		.p2align 4,,15
 133              		.global	chCoreAllocI
 134              		.thumb
 135              		.thumb_func
 136              		.type	chCoreAllocI, %function
 137              	chCoreAllocI:
 138              	.LFB9:
 139              		.loc 1 112 0
 140              		.cfi_startproc
 141              		@ args = 0, pretend = 0, frame = 0
 142              		@ frame_needed = 0, uses_anonymous_args = 0
 143              		@ link register save eliminated.
 144              	.LVL10:
 145              		.loc 1 118 0
 146 0000 40F20003 		movw	r3, #:lower16:.LANCHOR0
 147 0004 40F2000C 		movw	ip, #:lower16:.LANCHOR1
 148 0008 C0F20003 		movt	r3, #:upper16:.LANCHOR0
 149 000c C0F2000C 		movt	ip, #:upper16:.LANCHOR1
 150 0010 1A68     		ldr	r2, [r3, #0]
 151 0012 DCF80010 		ldr	r1, [ip, #0]
 152              		.loc 1 117 0
 153 0016 0730     		adds	r0, r0, #7
 154              	.LVL11:
 155 0018 20F00700 		bic	r0, r0, #7
 156              	.LVL12:
 157              		.loc 1 118 0
 158 001c 891A     		subs	r1, r1, r2
 159 001e 8842     		cmp	r0, r1
 160              	.LVL13:
 161              		.loc 1 121 0
 162 0020 9ABF     		itte	ls
 163 0022 1018     		addls	r0, r2, r0
 164              	.LVL14:
 165 0024 1860     		strls	r0, [r3, #0]
 166              		.loc 1 119 0
 167 0026 0022     		movhi	r2, #0
 168              		.loc 1 123 0
 169 0028 1046     		mov	r0, r2
 170 002a 7047     		bx	lr
ARM GAS  /tmp/ccro5EIJ.s 			page 4


 171              		.cfi_endproc
 172              	.LFE9:
 173              		.size	chCoreAllocI, .-chCoreAllocI
 174 002c AFF30080 		.section	.text.chCoreStatus,"ax",%progbits
 175              		.align	2
 176              		.p2align 4,,15
 177              		.global	chCoreStatus
 178              		.thumb
 179              		.thumb_func
 180              		.type	chCoreStatus, %function
 181              	chCoreStatus:
 182              	.LFB10:
 183              		.loc 1 132 0
 184              		.cfi_startproc
 185              		@ args = 0, pretend = 0, frame = 0
 186              		@ frame_needed = 0, uses_anonymous_args = 0
 187              		@ link register save eliminated.
 188              		.loc 1 134 0
 189 0000 40F20002 		movw	r2, #:lower16:.LANCHOR1
 190 0004 40F20001 		movw	r1, #:lower16:.LANCHOR0
 191 0008 C0F20002 		movt	r2, #:upper16:.LANCHOR1
 192 000c C0F20001 		movt	r1, #:upper16:.LANCHOR0
 193 0010 1068     		ldr	r0, [r2, #0]
 194 0012 0B68     		ldr	r3, [r1, #0]
 195              		.loc 1 135 0
 196 0014 C01A     		subs	r0, r0, r3
 197 0016 7047     		bx	lr
 198              		.cfi_endproc
 199              	.LFE10:
 200              		.size	chCoreStatus, .-chCoreStatus
 201 0018 AFF30080 		.section	.bss.endmem,"aw",%nobits
 201      AFF30080 
 202              		.align	2
 203              		.set	.LANCHOR1,. + 0
 204              		.type	endmem, %object
 205              		.size	endmem, 4
 206              	endmem:
 207 0000 00000000 		.space	4
 208              		.section	.bss.nextmem,"aw",%nobits
 209              		.align	2
 210              		.set	.LANCHOR0,. + 0
 211              		.type	nextmem, %object
 212              		.size	nextmem, 4
 213              	nextmem:
 214 0000 00000000 		.space	4
 215              		.text
 216              	.Letext0:
 217              		.file 2 "/opt/arm-2011q3/bin/../lib/gcc/arm-none-eabi/4.6.1/include/stddef.h"
 218              		.file 3 "/opt/arm-2011q3/bin/../lib/gcc/arm-none-eabi/4.6.1/../../../../arm-none-eabi/include/stdi
