ARM GAS  /tmp/ccvmuiMA.s 			page 1


   1              		.syntax unified
   2              		.cpu cortex-m3
   3              		.fpu softvfp
   4              		.eabi_attribute 20, 1
   5              		.eabi_attribute 21, 1
   6              		.eabi_attribute 23, 3
   7              		.eabi_attribute 24, 1
   8              		.eabi_attribute 25, 1
   9              		.eabi_attribute 26, 1
  10              		.eabi_attribute 30, 2
  11              		.eabi_attribute 34, 1
  12              		.eabi_attribute 18, 4
  13              		.thumb
  14              		.file	"chqueues.c"
  15              		.text
  16              	.Ltext0:
  17              		.cfi_sections	.debug_frame
  18              		.section	.text.qwait,"ax",%progbits
  19              		.align	2
  20              		.p2align 4,,15
  21              		.thumb
  22              		.thumb_func
  23              		.type	qwait, %function
  24              	qwait:
  25              	.LFB7:
  26              		.file 1 "../../os/kernel/src/chqueues.c"
  27              		.loc 1 72 0
  28              		.cfi_startproc
  29              		@ args = 0, pretend = 0, frame = 0
  30              		@ frame_needed = 0, uses_anonymous_args = 0
  31              		@ link register save eliminated.
  32              	.LVL0:
  33 0000 10B4     		push	{r4}
  34              	.LCFI0:
  35              		.cfi_def_cfa_offset 4
  36              		.cfi_offset 4, -4
  37              		.loc 1 72 0
  38 0002 0246     		mov	r2, r0
  39              		.loc 1 74 0
  40 0004 71B1     		cbz	r1, .L2
  41              		.loc 1 76 0
  42 0006 40F20000 		movw	r0, #:lower16:rlist
  43              	.LVL1:
  44 000a C0F20000 		movt	r0, #:upper16:rlist
  45 000e C369     		ldr	r3, [r0, #28]
  46              		.loc 1 78 0
  47 0010 0D20     		movs	r0, #13
  48              		.loc 1 76 0
  49 0012 5A62     		str	r2, [r3, #36]
  50              	.LVL2:
  51              	.LBB12:
  52              	.LBB13:
  53              		.file 2 "../../os/kernel/include/chinline.h"
  54              		.loc 2 55 0
  55 0014 5468     		ldr	r4, [r2, #4]
  56 0016 83E81400 		stmia	r3, {r2, r4}
  57              		.loc 2 56 0
ARM GAS  /tmp/ccvmuiMA.s 			page 2


  58 001a 5360     		str	r3, [r2, #4]
  59 001c 2360     		str	r3, [r4, #0]
  60              	.LBE13:
  61              	.LBE12:
  62              		.loc 1 79 0
  63 001e 10BC     		pop	{r4}
  64              		.loc 1 78 0
  65 0020 FFF7FEBF 		b	chSchGoSleepTimeoutS
  66              	.LVL3:
  67              	.L2:
  68              		.loc 1 79 0
  69 0024 4FF0FF30 		mov	r0, #-1
  70              	.LVL4:
  71 0028 10BC     		pop	{r4}
  72 002a 7047     		bx	lr
  73              		.cfi_endproc
  74              	.LFE7:
  75              		.size	qwait, .-qwait
  76 002c AFF30080 		.section	.text.chIQInit,"ax",%progbits
  77              		.align	2
  78              		.p2align 4,,15
  79              		.global	chIQInit
  80              		.thumb
  81              		.thumb_func
  82              		.type	chIQInit, %function
  83              	chIQInit:
  84              	.LFB8:
  85              		.loc 1 96 0
  86              		.cfi_startproc
  87              		@ args = 0, pretend = 0, frame = 0
  88              		@ frame_needed = 0, uses_anonymous_args = 0
  89              		@ link register save eliminated.
  90              	.LVL5:
  91 0000 10B4     		push	{r4}
  92              	.LCFI1:
  93              		.cfi_def_cfa_offset 4
  94              		.cfi_offset 4, -4
  95              		.loc 1 101 0
  96 0002 8A18     		adds	r2, r1, r2
  97              	.LVL6:
  98              		.loc 1 99 0
  99 0004 0024     		movs	r4, #0
 100              		.loc 1 98 0
 101 0006 4060     		str	r0, [r0, #4]
 102 0008 0060     		str	r0, [r0, #0]
 103              		.loc 1 99 0
 104 000a 8460     		str	r4, [r0, #8]
 105              		.loc 1 100 0
 106 000c 4161     		str	r1, [r0, #20]
 107 000e 8161     		str	r1, [r0, #24]
 108 0010 C160     		str	r1, [r0, #12]
 109              		.loc 1 101 0
 110 0012 0261     		str	r2, [r0, #16]
 111              		.loc 1 102 0
 112 0014 C361     		str	r3, [r0, #28]
 113              		.loc 1 103 0
 114 0016 10BC     		pop	{r4}
ARM GAS  /tmp/ccvmuiMA.s 			page 3


 115 0018 7047     		bx	lr
 116              		.cfi_endproc
 117              	.LFE8:
 118              		.size	chIQInit, .-chIQInit
 119              		.section	.text.chIQResetI,"ax",%progbits
 120              		.align	2
 121              		.p2align 4,,15
 122              		.global	chIQResetI
 123              		.thumb
 124              		.thumb_func
 125              		.type	chIQResetI, %function
 126              	chIQResetI:
 127              	.LFB9:
 128              		.loc 1 116 0
 129              		.cfi_startproc
 130              		@ args = 0, pretend = 0, frame = 0
 131              		@ frame_needed = 0, uses_anonymous_args = 0
 132              	.LVL7:
 133 0000 38B5     		push	{r3, r4, r5, lr}
 134              	.LCFI2:
 135              		.cfi_def_cfa_offset 16
 136              		.cfi_offset 14, -4
 137              		.cfi_offset 5, -8
 138              		.cfi_offset 4, -12
 139              		.cfi_offset 3, -16
 140              		.loc 1 120 0
 141 0002 C168     		ldr	r1, [r0, #12]
 142              		.loc 1 116 0
 143 0004 0446     		mov	r4, r0
 144              		.loc 1 122 0
 145 0006 0068     		ldr	r0, [r0, #0]
 146              	.LVL8:
 147              		.loc 1 121 0
 148 0008 0023     		movs	r3, #0
 149              		.loc 1 122 0
 150 000a A042     		cmp	r0, r4
 151              		.loc 1 120 0
 152 000c 6161     		str	r1, [r4, #20]
 153 000e A161     		str	r1, [r4, #24]
 154              		.loc 1 121 0
 155 0010 A360     		str	r3, [r4, #8]
 156              		.loc 1 122 0
 157 0012 0AD0     		beq	.L5
 158              		.loc 1 123 0
 159 0014 6FF00105 		mvn	r5, #1
 160              	.L8:
 161              	.LVL9:
 162              	.LBB14:
 163              	.LBB15:
 164              		.loc 2 62 0
 165 0018 0268     		ldr	r2, [r0, #0]
 166 001a 2260     		str	r2, [r4, #0]
 167 001c 5460     		str	r4, [r2, #4]
 168              	.LBE15:
 169              	.LBE14:
 170              		.loc 1 123 0
 171 001e FFF7FEFF 		bl	chSchReadyI
ARM GAS  /tmp/ccvmuiMA.s 			page 4


 172              	.LVL10:
 173 0022 4562     		str	r5, [r0, #36]
 174              		.loc 1 122 0
 175 0024 2068     		ldr	r0, [r4, #0]
 176 0026 8442     		cmp	r4, r0
 177 0028 F6D1     		bne	.L8
 178              	.LVL11:
 179              	.L5:
 180 002a 38BD     		pop	{r3, r4, r5, pc}
 181              		.cfi_endproc
 182              	.LFE9:
 183              		.size	chIQResetI, .-chIQResetI
 184 002c AFF30080 		.section	.text.chIQPutI,"ax",%progbits
 185              		.align	2
 186              		.p2align 4,,15
 187              		.global	chIQPutI
 188              		.thumb
 189              		.thumb_func
 190              		.type	chIQPutI, %function
 191              	chIQPutI:
 192              	.LFB10:
 193              		.loc 1 139 0
 194              		.cfi_startproc
 195              		@ args = 0, pretend = 0, frame = 0
 196              		@ frame_needed = 0, uses_anonymous_args = 0
 197              	.LVL12:
 198              		.loc 1 143 0
 199 0000 4269     		ldr	r2, [r0, #20]
 200              		.loc 1 139 0
 201 0002 08B5     		push	{r3, lr}
 202              	.LCFI3:
 203              		.cfi_def_cfa_offset 8
 204              		.cfi_offset 14, -4
 205              		.cfi_offset 3, -8
 206              		.loc 1 139 0
 207 0004 0346     		mov	r3, r0
 208              		.loc 1 143 0
 209 0006 8069     		ldr	r0, [r0, #24]
 210              	.LVL13:
 211 0008 8242     		cmp	r2, r0
 212 000a 9868     		ldr	r0, [r3, #8]
 213 000c 18D0     		beq	.L11
 214              	.L12:
 215              		.loc 1 146 0
 216 000e 0130     		adds	r0, r0, #1
 217 0010 9860     		str	r0, [r3, #8]
 218              		.loc 1 147 0
 219 0012 02F8011B 		strb	r1, [r2], #1
 220              		.loc 1 148 0
 221 0016 1969     		ldr	r1, [r3, #16]
 222              	.LVL14:
 223              		.loc 1 147 0
 224 0018 5A61     		str	r2, [r3, #20]
 225              		.loc 1 148 0
 226 001a 8A42     		cmp	r2, r1
 227              		.loc 1 149 0
 228 001c 28BF     		it	cs
ARM GAS  /tmp/ccvmuiMA.s 			page 5


 229 001e DA68     		ldrcs	r2, [r3, #12]
 230              		.loc 1 151 0
 231 0020 1868     		ldr	r0, [r3, #0]
 232              		.loc 1 149 0
 233 0022 28BF     		it	cs
 234 0024 5A61     		strcs	r2, [r3, #20]
 235              		.loc 1 151 0
 236 0026 9842     		cmp	r0, r3
 237 0028 08D0     		beq	.L16
 238              	.LVL15:
 239              	.LBB16:
 240              	.LBB17:
 241              		.loc 2 62 0
 242 002a 0268     		ldr	r2, [r0, #0]
 243 002c 1A60     		str	r2, [r3, #0]
 244 002e 5360     		str	r3, [r2, #4]
 245              	.LBE17:
 246              	.LBE16:
 247              		.loc 1 152 0
 248 0030 FFF7FEFF 		bl	chSchReadyI
 249              	.LVL16:
 250 0034 0023     		movs	r3, #0
 251 0036 4362     		str	r3, [r0, #36]
 252              		.loc 1 154 0
 253 0038 1846     		mov	r0, r3
 254 003a 08BD     		pop	{r3, pc}
 255              	.LVL17:
 256              	.L16:
 257 003c 0020     		movs	r0, #0
 258              		.loc 1 155 0
 259 003e 08BD     		pop	{r3, pc}
 260              	.LVL18:
 261              	.L11:
 262              		.loc 1 143 0 discriminator 1
 263 0040 0028     		cmp	r0, #0
 264 0042 E4D0     		beq	.L12
 265              		.loc 1 144 0
 266 0044 6FF00300 		mvn	r0, #3
 267 0048 08BD     		pop	{r3, pc}
 268              		.cfi_endproc
 269              	.LFE10:
 270              		.size	chIQPutI, .-chIQPutI
 271 004a 00BFAFF3 		.section	.text.chIQGetTimeout,"ax",%progbits
 271      0080
 272              		.align	2
 273              		.p2align 4,,15
 274              		.global	chIQGetTimeout
 275              		.thumb
 276              		.thumb_func
 277              		.type	chIQGetTimeout, %function
 278              	chIQGetTimeout:
 279              	.LFB11:
 280              		.loc 1 177 0
 281              		.cfi_startproc
 282              		@ args = 0, pretend = 0, frame = 0
 283              		@ frame_needed = 0, uses_anonymous_args = 0
 284              	.LVL19:
ARM GAS  /tmp/ccvmuiMA.s 			page 6


 285 0000 70B5     		push	{r4, r5, r6, lr}
 286              	.LCFI4:
 287              		.cfi_def_cfa_offset 16
 288              		.cfi_offset 14, -4
 289              		.cfi_offset 6, -8
 290              		.cfi_offset 5, -12
 291              		.cfi_offset 4, -16
 292              	.LBB18:
 293              		.loc 1 180 0
 294 0002 2023     		movs	r3, #32
 295              	.LVL20:
 296              	.LBE18:
 297              		.loc 1 177 0
 298 0004 0446     		mov	r4, r0
 299 0006 0D46     		mov	r5, r1
 300              	.LBB19:
 301              		.loc 1 180 0
 302              	@ 180 "../../os/kernel/src/chqueues.c" 1
 303 0008 83F31188 		msr     BASEPRI, r3
 304              	@ 0 "" 2
 305              	.LVL21:
 306              		.thumb
 307              	.LBE19:
 308              		.loc 1 181 0
 309 000c C369     		ldr	r3, [r0, #28]
 310              	.LVL22:
 311 000e 03B1     		cbz	r3, .L23
 312              		.loc 1 182 0
 313 0010 9847     		blx	r3
 314              	.LVL23:
 315              	.L23:
 316              		.loc 1 184 0 discriminator 1
 317 0012 A668     		ldr	r6, [r4, #8]
 318              	.LBB20:
 319              		.loc 1 186 0 discriminator 1
 320 0014 2046     		mov	r0, r4
 321 0016 2946     		mov	r1, r5
 322              	.LBE20:
 323              		.loc 1 184 0 discriminator 1
 324 0018 3EB9     		cbnz	r6, .L25
 325              	.LBB22:
 326              		.loc 1 186 0
 327 001a FFF7FEFF 		bl	qwait
 328              	.LVL24:
 329 001e 0028     		cmp	r0, #0
 330 0020 F7DA     		bge	.L23
 331              	.LBB21:
 332              		.loc 1 187 0
 333 0022 3346     		mov	r3, r6
 334              	.LVL25:
 335              	@ 187 "../../os/kernel/src/chqueues.c" 1
 336 0024 83F31188 		msr     BASEPRI, r3
 337              	@ 0 "" 2
 338              	.LVL26:
 339              		.thumb
 340              	.LBE21:
 341              		.loc 1 188 0
ARM GAS  /tmp/ccvmuiMA.s 			page 7


 342 0028 70BD     		pop	{r4, r5, r6, pc}
 343              	.LVL27:
 344              	.L25:
 345              	.LBE22:
 346              		.loc 1 193 0
 347 002a A369     		ldr	r3, [r4, #24]
 348              		.loc 1 192 0
 349 002c 013E     		subs	r6, r6, #1
 350 002e A660     		str	r6, [r4, #8]
 351              		.loc 1 193 0
 352 0030 13F8010B 		ldrb	r0, [r3], #1	@ zero_extendqisi2
 353              	.LVL28:
 354              		.loc 1 194 0
 355 0034 2269     		ldr	r2, [r4, #16]
 356              		.loc 1 193 0
 357 0036 A361     		str	r3, [r4, #24]
 358              		.loc 1 194 0
 359 0038 9342     		cmp	r3, r2
 360              		.loc 1 195 0
 361 003a 24BF     		itt	cs
 362 003c E368     		ldrcs	r3, [r4, #12]
 363 003e A361     		strcs	r3, [r4, #24]
 364              	.LBB23:
 365              		.loc 1 197 0
 366 0040 0023     		movs	r3, #0
 367              	.LVL29:
 368              	@ 197 "../../os/kernel/src/chqueues.c" 1
 369 0042 83F31188 		msr     BASEPRI, r3
 370              	@ 0 "" 2
 371              	.LVL30:
 372              		.thumb
 373              	.LBE23:
 374              		.loc 1 199 0
 375 0046 70BD     		pop	{r4, r5, r6, pc}
 376              		.cfi_endproc
 377              	.LFE11:
 378              		.size	chIQGetTimeout, .-chIQGetTimeout
 379 0048 AFF30080 		.section	.text.chIQReadTimeout,"ax",%progbits
 379      AFF30080 
 380              		.align	2
 381              		.p2align 4,,15
 382              		.global	chIQReadTimeout
 383              		.thumb
 384              		.thumb_func
 385              		.type	chIQReadTimeout, %function
 386              	chIQReadTimeout:
 387              	.LFB12:
 388              		.loc 1 226 0
 389              		.cfi_startproc
 390              		@ args = 0, pretend = 0, frame = 0
 391              		@ frame_needed = 0, uses_anonymous_args = 0
 392              	.LVL31:
 393 0000 2DE9F047 		push	{r4, r5, r6, r7, r8, r9, sl, lr}
 394              	.LCFI5:
 395              		.cfi_def_cfa_offset 32
 396              		.cfi_offset 14, -4
 397              		.cfi_offset 10, -8
ARM GAS  /tmp/ccvmuiMA.s 			page 8


 398              		.cfi_offset 9, -12
 399              		.cfi_offset 8, -16
 400              		.cfi_offset 7, -20
 401              		.cfi_offset 6, -24
 402              		.cfi_offset 5, -28
 403              		.cfi_offset 4, -32
 404              		.loc 1 226 0
 405 0004 1D46     		mov	r5, r3
 406 0006 0446     		mov	r4, r0
 407 0008 0E46     		mov	r6, r1
 408 000a 9146     		mov	r9, r2
 409              		.loc 1 227 0
 410 000c D0F81C80 		ldr	r8, [r0, #28]
 411              	.LVL32:
 412              	.LBB24:
 413              		.loc 1 232 0
 414 0010 2023     		movs	r3, #32
 415              	.LVL33:
 416              	@ 232 "../../os/kernel/src/chqueues.c" 1
 417 0012 83F31188 		msr     BASEPRI, r3
 418              	@ 0 "" 2
 419              	.LVL34:
 420              		.loc 1 228 0
 421              		.thumb
 422 0016 0027     		movs	r7, #0
 423              	.LVL35:
 424              	.L32:
 425              	.LBE24:
 426              		.loc 1 234 0
 427 0018 B8F1000F 		cmp	r8, #0
 428 001c 01D0     		beq	.L33
 429              		.loc 1 235 0
 430 001e 2046     		mov	r0, r4
 431 0020 C047     		blx	r8
 432              	.LVL36:
 433              	.L33:
 434              		.loc 1 237 0 discriminator 1
 435 0022 D4F808A0 		ldr	sl, [r4, #8]
 436              		.loc 1 238 0 discriminator 1
 437 0026 2046     		mov	r0, r4
 438 0028 2946     		mov	r1, r5
 439              		.loc 1 237 0 discriminator 1
 440 002a BAF1000F 		cmp	sl, #0
 441 002e 09D1     		bne	.L35
 442              		.loc 1 238 0
 443 0030 FFF7FEFF 		bl	qwait
 444              	.LVL37:
 445 0034 0028     		cmp	r0, #0
 446 0036 F4D0     		beq	.L33
 447              	.LBB25:
 448              		.loc 1 239 0
 449 0038 5346     		mov	r3, sl
 450              	.LVL38:
 451              	@ 239 "../../os/kernel/src/chqueues.c" 1
 452 003a 83F31188 		msr     BASEPRI, r3
 453              	@ 0 "" 2
 454              	.LVL39:
ARM GAS  /tmp/ccvmuiMA.s 			page 9


 455              		.thumb
 456              	.L29:
 457              	.LBE25:
 458              		.loc 1 256 0
 459 003e 3846     		mov	r0, r7
 460 0040 BDE8F087 		pop	{r4, r5, r6, r7, r8, r9, sl, pc}
 461              	.LVL40:
 462              	.L35:
 463              		.loc 1 245 0
 464 0044 A369     		ldr	r3, [r4, #24]
 465              	.LVL41:
 466              		.loc 1 244 0
 467 0046 0AF1FF31 		add	r1, sl, #-1
 468 004a A160     		str	r1, [r4, #8]
 469              		.loc 1 245 0
 470 004c 13F8010B 		ldrb	r0, [r3], #1	@ zero_extendqisi2
 471 0050 F055     		strb	r0, [r6, r7]
 472              		.loc 1 246 0
 473 0052 2269     		ldr	r2, [r4, #16]
 474              		.loc 1 245 0
 475 0054 A361     		str	r3, [r4, #24]
 476              		.loc 1 246 0
 477 0056 9342     		cmp	r3, r2
 478              		.loc 1 247 0
 479 0058 24BF     		itt	cs
 480 005a E368     		ldrcs	r3, [r4, #12]
 481 005c A361     		strcs	r3, [r4, #24]
 482              	.LBB26:
 483              		.loc 1 249 0
 484 005e 0023     		movs	r3, #0
 485              	@ 249 "../../os/kernel/src/chqueues.c" 1
 486 0060 83F31188 		msr     BASEPRI, r3
 487              	@ 0 "" 2
 488              	.LVL42:
 489              		.thumb
 490              	.LBE26:
 491              		.loc 1 250 0
 492 0064 0137     		adds	r7, r7, #1
 493              	.LVL43:
 494              		.loc 1 251 0
 495 0066 4F45     		cmp	r7, r9
 496 0068 E9D0     		beq	.L29
 497              	.LBB27:
 498              		.loc 1 254 0
 499 006a 2023     		movs	r3, #32
 500              	.LVL44:
 501              	@ 254 "../../os/kernel/src/chqueues.c" 1
 502 006c 83F31188 		msr     BASEPRI, r3
 503              	@ 0 "" 2
 504              	.LVL45:
 505              		.thumb
 506              	.LBE27:
 507              		.loc 1 255 0
 508 0070 D2E7     		b	.L32
 509              		.cfi_endproc
 510              	.LFE12:
 511              		.size	chIQReadTimeout, .-chIQReadTimeout
ARM GAS  /tmp/ccvmuiMA.s 			page 10


 512 0072 00BFAFF3 		.section	.text.chOQInit,"ax",%progbits
 512      0080AFF3 
 512      0080AFF3 
 512      0080
 513              		.align	2
 514              		.p2align 4,,15
 515              		.global	chOQInit
 516              		.thumb
 517              		.thumb_func
 518              		.type	chOQInit, %function
 519              	chOQInit:
 520              	.LFB13:
 521              		.loc 1 273 0
 522              		.cfi_startproc
 523              		@ args = 0, pretend = 0, frame = 0
 524              		@ frame_needed = 0, uses_anonymous_args = 0
 525              		@ link register save eliminated.
 526              	.LVL46:
 527 0000 10B4     		push	{r4}
 528              	.LCFI6:
 529              		.cfi_def_cfa_offset 4
 530              		.cfi_offset 4, -4
 531              		.loc 1 278 0
 532 0002 8C18     		adds	r4, r1, r2
 533              		.loc 1 275 0
 534 0004 4060     		str	r0, [r0, #4]
 535 0006 0060     		str	r0, [r0, #0]
 536              		.loc 1 276 0
 537 0008 8260     		str	r2, [r0, #8]
 538              		.loc 1 277 0
 539 000a 4161     		str	r1, [r0, #20]
 540 000c 8161     		str	r1, [r0, #24]
 541 000e C160     		str	r1, [r0, #12]
 542              		.loc 1 278 0
 543 0010 0461     		str	r4, [r0, #16]
 544              		.loc 1 279 0
 545 0012 C361     		str	r3, [r0, #28]
 546              		.loc 1 280 0
 547 0014 10BC     		pop	{r4}
 548 0016 7047     		bx	lr
 549              		.cfi_endproc
 550              	.LFE13:
 551              		.size	chOQInit, .-chOQInit
 552 0018 AFF30080 		.section	.text.chOQResetI,"ax",%progbits
 552      AFF30080 
 553              		.align	2
 554              		.p2align 4,,15
 555              		.global	chOQResetI
 556              		.thumb
 557              		.thumb_func
 558              		.type	chOQResetI, %function
 559              	chOQResetI:
 560              	.LFB14:
 561              		.loc 1 293 0
 562              		.cfi_startproc
 563              		@ args = 0, pretend = 0, frame = 0
 564              		@ frame_needed = 0, uses_anonymous_args = 0
ARM GAS  /tmp/ccvmuiMA.s 			page 11


 565              	.LVL47:
 566 0000 38B5     		push	{r3, r4, r5, lr}
 567              	.LCFI7:
 568              		.cfi_def_cfa_offset 16
 569              		.cfi_offset 14, -4
 570              		.cfi_offset 5, -8
 571              		.cfi_offset 4, -12
 572              		.cfi_offset 3, -16
 573              		.loc 1 298 0
 574 0002 0169     		ldr	r1, [r0, #16]
 575              		.loc 1 293 0
 576 0004 0446     		mov	r4, r0
 577              		.loc 1 297 0
 578 0006 C368     		ldr	r3, [r0, #12]
 579              		.loc 1 299 0
 580 0008 0068     		ldr	r0, [r0, #0]
 581              	.LVL48:
 582              		.loc 1 298 0
 583 000a CA1A     		subs	r2, r1, r3
 584              		.loc 1 299 0
 585 000c A042     		cmp	r0, r4
 586              		.loc 1 297 0
 587 000e 6361     		str	r3, [r4, #20]
 588 0010 A361     		str	r3, [r4, #24]
 589              		.loc 1 298 0
 590 0012 A260     		str	r2, [r4, #8]
 591              		.loc 1 299 0
 592 0014 0AD0     		beq	.L37
 593              		.loc 1 300 0
 594 0016 6FF00105 		mvn	r5, #1
 595              	.L40:
 596              	.LVL49:
 597              	.LBB28:
 598              	.LBB29:
 599              		.loc 2 62 0
 600 001a 0268     		ldr	r2, [r0, #0]
 601 001c 2260     		str	r2, [r4, #0]
 602 001e 5460     		str	r4, [r2, #4]
 603              	.LBE29:
 604              	.LBE28:
 605              		.loc 1 300 0
 606 0020 FFF7FEFF 		bl	chSchReadyI
 607              	.LVL50:
 608 0024 4562     		str	r5, [r0, #36]
 609              		.loc 1 299 0
 610 0026 2068     		ldr	r0, [r4, #0]
 611 0028 8442     		cmp	r4, r0
 612 002a F6D1     		bne	.L40
 613              	.LVL51:
 614              	.L37:
 615 002c 38BD     		pop	{r3, r4, r5, pc}
 616              		.cfi_endproc
 617              	.LFE14:
 618              		.size	chOQResetI, .-chOQResetI
 619 002e 00BF     		.section	.text.chOQPutTimeout,"ax",%progbits
 620              		.align	2
 621              		.p2align 4,,15
ARM GAS  /tmp/ccvmuiMA.s 			page 12


 622              		.global	chOQPutTimeout
 623              		.thumb
 624              		.thumb_func
 625              		.type	chOQPutTimeout, %function
 626              	chOQPutTimeout:
 627              	.LFB15:
 628              		.loc 1 325 0
 629              		.cfi_startproc
 630              		@ args = 0, pretend = 0, frame = 0
 631              		@ frame_needed = 0, uses_anonymous_args = 0
 632              	.LVL52:
 633 0000 F8B5     		push	{r3, r4, r5, r6, r7, lr}
 634              	.LCFI8:
 635              		.cfi_def_cfa_offset 24
 636              		.cfi_offset 14, -4
 637              		.cfi_offset 7, -8
 638              		.cfi_offset 6, -12
 639              		.cfi_offset 5, -16
 640              		.cfi_offset 4, -20
 641              		.cfi_offset 3, -24
 642              		.loc 1 325 0
 643 0002 0446     		mov	r4, r0
 644 0004 0D46     		mov	r5, r1
 645 0006 1646     		mov	r6, r2
 646              	.LBB30:
 647              		.loc 1 327 0
 648 0008 2023     		movs	r3, #32
 649              	.LVL53:
 650              	@ 327 "../../os/kernel/src/chqueues.c" 1
 651 000a 83F31188 		msr     BASEPRI, r3
 652              	@ 0 "" 2
 653              	.LVL54:
 654              		.thumb
 655              	.L43:
 656              	.LBE30:
 657              		.loc 1 328 0 discriminator 1
 658 000e A768     		ldr	r7, [r4, #8]
 659              	.LBB31:
 660              		.loc 1 331 0 discriminator 1
 661 0010 2046     		mov	r0, r4
 662 0012 3146     		mov	r1, r6
 663              	.LBE31:
 664              		.loc 1 328 0 discriminator 1
 665 0014 3FB9     		cbnz	r7, .L49
 666              	.LBB33:
 667              		.loc 1 331 0
 668 0016 FFF7FEFF 		bl	qwait
 669              	.LVL55:
 670 001a 0028     		cmp	r0, #0
 671 001c F7DA     		bge	.L43
 672              	.LBB32:
 673              		.loc 1 332 0
 674 001e 3B46     		mov	r3, r7
 675              	.LVL56:
 676              	@ 332 "../../os/kernel/src/chqueues.c" 1
 677 0020 83F31188 		msr     BASEPRI, r3
 678              	@ 0 "" 2
ARM GAS  /tmp/ccvmuiMA.s 			page 13


 679              	.LVL57:
 680              		.thumb
 681              	.LBE32:
 682              		.loc 1 333 0
 683 0024 F8BD     		pop	{r3, r4, r5, r6, r7, pc}
 684              	.LVL58:
 685              	.L49:
 686              	.LBE33:
 687              		.loc 1 338 0
 688 0026 6369     		ldr	r3, [r4, #20]
 689              	.LVL59:
 690              		.loc 1 337 0
 691 0028 013F     		subs	r7, r7, #1
 692 002a A760     		str	r7, [r4, #8]
 693              		.loc 1 338 0
 694 002c 03F8015B 		strb	r5, [r3], #1
 695              		.loc 1 339 0
 696 0030 2269     		ldr	r2, [r4, #16]
 697              		.loc 1 338 0
 698 0032 6361     		str	r3, [r4, #20]
 699              		.loc 1 339 0
 700 0034 9342     		cmp	r3, r2
 701              		.loc 1 340 0
 702 0036 24BF     		itt	cs
 703 0038 E368     		ldrcs	r3, [r4, #12]
 704 003a 6361     		strcs	r3, [r4, #20]
 705              		.loc 1 342 0
 706 003c E369     		ldr	r3, [r4, #28]
 707 003e 0BB1     		cbz	r3, .L47
 708              		.loc 1 343 0
 709 0040 2046     		mov	r0, r4
 710 0042 9847     		blx	r3
 711              	.L47:
 712              	.LBB34:
 713              		.loc 1 345 0
 714 0044 0023     		movs	r3, #0
 715              	.LVL60:
 716              	@ 345 "../../os/kernel/src/chqueues.c" 1
 717 0046 83F31188 		msr     BASEPRI, r3
 718              	@ 0 "" 2
 719              	.LVL61:
 720              		.thumb
 721              	.LBE34:
 722              		.loc 1 346 0
 723 004a 1846     		mov	r0, r3
 724              		.loc 1 347 0
 725 004c F8BD     		pop	{r3, r4, r5, r6, r7, pc}
 726              		.cfi_endproc
 727              	.LFE15:
 728              		.size	chOQPutTimeout, .-chOQPutTimeout
 729 004e 00BF     		.section	.text.chOQGetI,"ax",%progbits
 730              		.align	2
 731              		.p2align 4,,15
 732              		.global	chOQGetI
 733              		.thumb
 734              		.thumb_func
 735              		.type	chOQGetI, %function
ARM GAS  /tmp/ccvmuiMA.s 			page 14


 736              	chOQGetI:
 737              	.LFB16:
 738              		.loc 1 359 0
 739              		.cfi_startproc
 740              		@ args = 0, pretend = 0, frame = 0
 741              		@ frame_needed = 0, uses_anonymous_args = 0
 742              	.LVL62:
 743              		.loc 1 364 0
 744 0000 4169     		ldr	r1, [r0, #20]
 745 0002 8269     		ldr	r2, [r0, #24]
 746              		.loc 1 359 0
 747 0004 10B5     		push	{r4, lr}
 748              	.LCFI9:
 749              		.cfi_def_cfa_offset 8
 750              		.cfi_offset 14, -4
 751              		.cfi_offset 4, -8
 752              		.loc 1 364 0
 753 0006 9142     		cmp	r1, r2
 754              		.loc 1 359 0
 755 0008 0346     		mov	r3, r0
 756              		.loc 1 364 0
 757 000a 8168     		ldr	r1, [r0, #8]
 758 000c 16D0     		beq	.L51
 759              	.L52:
 760              		.loc 1 367 0
 761 000e 4C1C     		adds	r4, r1, #1
 762 0010 9C60     		str	r4, [r3, #8]
 763              		.loc 1 368 0
 764 0012 12F8014B 		ldrb	r4, [r2], #1	@ zero_extendqisi2
 765              	.LVL63:
 766              		.loc 1 369 0
 767 0016 1869     		ldr	r0, [r3, #16]
 768              	.LVL64:
 769              		.loc 1 368 0
 770 0018 9A61     		str	r2, [r3, #24]
 771              		.loc 1 369 0
 772 001a 8242     		cmp	r2, r0
 773              		.loc 1 370 0
 774 001c 28BF     		it	cs
 775 001e DA68     		ldrcs	r2, [r3, #12]
 776              		.loc 1 372 0
 777 0020 1868     		ldr	r0, [r3, #0]
 778              		.loc 1 370 0
 779 0022 28BF     		it	cs
 780 0024 9A61     		strcs	r2, [r3, #24]
 781              		.loc 1 372 0
 782 0026 9842     		cmp	r0, r3
 783 0028 06D0     		beq	.L55
 784              	.LVL65:
 785              	.LBB35:
 786              	.LBB36:
 787              		.loc 2 62 0
 788 002a 0268     		ldr	r2, [r0, #0]
 789 002c 1A60     		str	r2, [r3, #0]
 790 002e 5360     		str	r3, [r2, #4]
 791              	.LBE36:
 792              	.LBE35:
ARM GAS  /tmp/ccvmuiMA.s 			page 15


 793              		.loc 1 373 0
 794 0030 FFF7FEFF 		bl	chSchReadyI
 795              	.LVL66:
 796 0034 0023     		movs	r3, #0
 797 0036 4362     		str	r3, [r0, #36]
 798              	.L55:
 799              		.loc 1 375 0
 800 0038 2046     		mov	r0, r4
 801 003a 10BD     		pop	{r4, pc}
 802              	.LVL67:
 803              	.L51:
 804              		.loc 1 364 0 discriminator 1
 805 003c 0029     		cmp	r1, #0
 806 003e E6D0     		beq	.L52
 807              		.loc 1 365 0
 808 0040 6FF00200 		mvn	r0, #2
 809              	.LVL68:
 810              		.loc 1 376 0
 811 0044 10BD     		pop	{r4, pc}
 812              		.cfi_endproc
 813              	.LFE16:
 814              		.size	chOQGetI, .-chOQGetI
 815 0046 00BFAFF3 		.section	.text.chOQWriteTimeout,"ax",%progbits
 815      0080AFF3 
 815      0080
 816              		.align	2
 817              		.p2align 4,,15
 818              		.global	chOQWriteTimeout
 819              		.thumb
 820              		.thumb_func
 821              		.type	chOQWriteTimeout, %function
 822              	chOQWriteTimeout:
 823              	.LFB17:
 824              		.loc 1 403 0
 825              		.cfi_startproc
 826              		@ args = 0, pretend = 0, frame = 0
 827              		@ frame_needed = 0, uses_anonymous_args = 0
 828              	.LVL69:
 829 0000 2DE9F047 		push	{r4, r5, r6, r7, r8, r9, sl, lr}
 830              	.LCFI10:
 831              		.cfi_def_cfa_offset 32
 832              		.cfi_offset 14, -4
 833              		.cfi_offset 10, -8
 834              		.cfi_offset 9, -12
 835              		.cfi_offset 8, -16
 836              		.cfi_offset 7, -20
 837              		.cfi_offset 6, -24
 838              		.cfi_offset 5, -28
 839              		.cfi_offset 4, -32
 840              		.loc 1 403 0
 841 0004 1E46     		mov	r6, r3
 842 0006 0446     		mov	r4, r0
 843 0008 0D46     		mov	r5, r1
 844 000a 1746     		mov	r7, r2
 845              		.loc 1 404 0
 846 000c D0F81C90 		ldr	r9, [r0, #28]
 847              	.LVL70:
ARM GAS  /tmp/ccvmuiMA.s 			page 16


 848              	.LBB37:
 849              		.loc 1 409 0
 850 0010 2023     		movs	r3, #32
 851              	.LVL71:
 852              	@ 409 "../../os/kernel/src/chqueues.c" 1
 853 0012 83F31188 		msr     BASEPRI, r3
 854              	@ 0 "" 2
 855              	.LVL72:
 856              		.loc 1 405 0
 857              		.thumb
 858 0016 4FF00008 		mov	r8, #0
 859              	.LVL73:
 860              	.L66:
 861              	.LBE37:
 862              		.loc 1 411 0 discriminator 1
 863 001a D4F808A0 		ldr	sl, [r4, #8]
 864              		.loc 1 423 0 discriminator 1
 865 001e 2046     		mov	r0, r4
 866              		.loc 1 417 0 discriminator 1
 867 0020 0AF1FF33 		add	r3, sl, #-1
 868              	.LVL74:
 869              		.loc 1 411 0 discriminator 1
 870 0024 BAF1000F 		cmp	sl, #0
 871 0028 21D0     		beq	.L61
 872              	.L67:
 873              		.loc 1 417 0
 874 002a A360     		str	r3, [r4, #8]
 875              		.loc 1 418 0
 876 002c 2978     		ldrb	r1, [r5, #0]	@ zero_extendqisi2
 877 002e 6369     		ldr	r3, [r4, #20]
 878 0030 03F8011B 		strb	r1, [r3], #1
 879              		.loc 1 419 0
 880 0034 2269     		ldr	r2, [r4, #16]
 881              		.loc 1 418 0
 882 0036 6361     		str	r3, [r4, #20]
 883              	.LVL75:
 884              		.loc 1 419 0
 885 0038 9342     		cmp	r3, r2
 886              		.loc 1 420 0
 887 003a 24BF     		itt	cs
 888 003c E368     		ldrcs	r3, [r4, #12]
 889 003e 6361     		strcs	r3, [r4, #20]
 890              		.loc 1 422 0
 891 0040 B9F1000F 		cmp	r9, #0
 892 0044 00D0     		beq	.L63
 893              		.loc 1 423 0
 894 0046 C847     		blx	r9
 895              	.L63:
 896              	.LBB38:
 897              		.loc 1 425 0
 898 0048 0023     		movs	r3, #0
 899              	.LVL76:
 900              	@ 425 "../../os/kernel/src/chqueues.c" 1
 901 004a 83F31188 		msr     BASEPRI, r3
 902              	@ 0 "" 2
 903              	.LVL77:
 904              		.thumb
ARM GAS  /tmp/ccvmuiMA.s 			page 17


 905              	.LBE38:
 906              		.loc 1 427 0
 907 004e 013F     		subs	r7, r7, #1
 908              	.LVL78:
 909              		.loc 1 426 0
 910 0050 08F10108 		add	r8, r8, #1
 911              	.LVL79:
 912              		.loc 1 427 0
 913 0054 14D0     		beq	.L60
 914              		.loc 1 418 0
 915 0056 0135     		adds	r5, r5, #1
 916              	.LVL80:
 917              	.LBB39:
 918              		.loc 1 429 0
 919 0058 2023     		movs	r3, #32
 920              	.LVL81:
 921              	@ 429 "../../os/kernel/src/chqueues.c" 1
 922 005a 83F31188 		msr     BASEPRI, r3
 923              	@ 0 "" 2
 924              	.LVL82:
 925              		.thumb
 926              	.LBE39:
 927              		.loc 1 411 0
 928 005e D4F808A0 		ldr	sl, [r4, #8]
 929              		.loc 1 423 0
 930 0062 2046     		mov	r0, r4
 931              		.loc 1 417 0
 932 0064 0AF1FF33 		add	r3, sl, #-1
 933              	.LVL83:
 934              		.loc 1 411 0
 935 0068 BAF1000F 		cmp	sl, #0
 936 006c DDD1     		bne	.L67
 937              	.L61:
 938              		.loc 1 412 0
 939 006e 2046     		mov	r0, r4
 940 0070 3146     		mov	r1, r6
 941 0072 FFF7FEFF 		bl	qwait
 942 0076 0028     		cmp	r0, #0
 943 0078 CFD0     		beq	.L66
 944              	.LBB40:
 945              		.loc 1 413 0
 946 007a 5346     		mov	r3, sl
 947              	.LVL84:
 948              	@ 413 "../../os/kernel/src/chqueues.c" 1
 949 007c 83F31188 		msr     BASEPRI, r3
 950              	@ 0 "" 2
 951              	.LVL85:
 952              		.thumb
 953              	.L60:
 954              	.LBE40:
 955              		.loc 1 431 0
 956 0080 4046     		mov	r0, r8
 957 0082 BDE8F087 		pop	{r4, r5, r6, r7, r8, r9, sl, pc}
 958              		.cfi_endproc
 959              	.LFE17:
 960              		.size	chOQWriteTimeout, .-chOQWriteTimeout
 961 0086 00BFAFF3 		.text
ARM GAS  /tmp/ccvmuiMA.s 			page 18


 961      0080AFF3 
 961      0080
 962              	.Letext0:
 963              		.file 3 "/opt/arm-2011q3/bin/../lib/gcc/arm-none-eabi/4.6.1/include/stddef.h"
 964              		.file 4 "/opt/arm-2011q3/bin/../lib/gcc/arm-none-eabi/4.6.1/../../../../arm-none-eabi/include/stdi
 965              		.file 5 "../../os/ports/GCC/ARMCMx/chtypes.h"
 966              		.file 6 "../../os/kernel/include/chlists.h"
 967              		.file 7 "../../os/kernel/include/chthreads.h"
 968              		.file 8 "../../os/ports/GCC/ARMCMx/chcore_v7m.h"
 969              		.file 9 "../../os/kernel/include/chschd.h"
 970              		.file 10 "../../os/kernel/include/chmtx.h"
 971              		.file 11 "../../os/kernel/include/chqueues.h"
