ARM GAS  /tmp/cchYRDRL.s 			page 1


   1              		.syntax unified
   2              		.cpu cortex-m3
   3              		.fpu softvfp
   4              		.eabi_attribute 20, 1
   5              		.eabi_attribute 21, 1
   6              		.eabi_attribute 23, 3
   7              		.eabi_attribute 24, 1
   8              		.eabi_attribute 25, 1
   9              		.eabi_attribute 26, 1
  10              		.eabi_attribute 30, 2
  11              		.eabi_attribute 34, 1
  12              		.eabi_attribute 18, 4
  13              		.thumb
  14              		.file	"testevt.c"
  15              		.text
  16              	.Ltext0:
  17              		.cfi_sections	.debug_frame
  18              		.section	.text.evt3_setup,"ax",%progbits
  19              		.align	2
  20              		.p2align 4,,15
  21              		.thumb
  22              		.thumb_func
  23              		.type	evt3_setup, %function
  24              	evt3_setup:
  25              	.LFB16:
  26              		.file 1 "../../test/testevt.c"
  27              		.loc 1 258 0
  28              		.cfi_startproc
  29              		@ args = 0, pretend = 0, frame = 0
  30              		@ frame_needed = 0, uses_anonymous_args = 0
  31              		@ link register save eliminated.
  32              		.loc 1 260 0
  33 0000 4FF0FF30 		mov	r0, #-1
  34              		.loc 1 261 0
  35              		.loc 1 260 0
  36 0004 FFF7FEBF 		b	chEvtClearFlags
  37              		.cfi_endproc
  38              	.LFE16:
  39              		.size	evt3_setup, .-evt3_setup
  40 0008 AFF30080 		.section	.text.evt2_setup,"ax",%progbits
  40      AFF30080 
  41              		.align	2
  42              		.p2align 4,,15
  43              		.thumb
  44              		.thumb_func
  45              		.type	evt2_setup, %function
  46              	evt2_setup:
  47              	.LFB12:
  48              		.loc 1 139 0
  49              		.cfi_startproc
  50              		@ args = 0, pretend = 0, frame = 0
  51              		@ frame_needed = 0, uses_anonymous_args = 0
  52              		@ link register save eliminated.
  53              		.loc 1 141 0
  54 0000 4FF0FF30 		mov	r0, #-1
  55              		.loc 1 142 0
  56              		.loc 1 141 0
ARM GAS  /tmp/cchYRDRL.s 			page 2


  57 0004 FFF7FEBF 		b	chEvtClearFlags
  58              		.cfi_endproc
  59              	.LFE12:
  60              		.size	evt2_setup, .-evt2_setup
  61 0008 AFF30080 		.section	.text.evt1_setup,"ax",%progbits
  61      AFF30080 
  62              		.align	2
  63              		.p2align 4,,15
  64              		.thumb
  65              		.thumb_func
  66              		.type	evt1_setup, %function
  67              	evt1_setup:
  68              	.LFB7:
  69              		.loc 1 86 0
  70              		.cfi_startproc
  71              		@ args = 0, pretend = 0, frame = 0
  72              		@ frame_needed = 0, uses_anonymous_args = 0
  73              		@ link register save eliminated.
  74              		.loc 1 88 0
  75 0000 4FF0FF30 		mov	r0, #-1
  76              		.loc 1 89 0
  77              		.loc 1 88 0
  78 0004 FFF7FEBF 		b	chEvtClearFlags
  79              		.cfi_endproc
  80              	.LFE7:
  81              		.size	evt1_setup, .-evt1_setup
  82 0008 AFF30080 		.section	.text.thread2,"ax",%progbits
  82      AFF30080 
  83              		.align	2
  84              		.p2align 4,,15
  85              		.thumb
  86              		.thumb_func
  87              		.type	thread2, %function
  88              	thread2:
  89              	.LFB14:
  90              		.loc 1 151 0
  91              		.cfi_startproc
  92              		@ args = 0, pretend = 0, frame = 0
  93              		@ frame_needed = 0, uses_anonymous_args = 0
  94              	.LVL0:
  95              		.loc 1 154 0
  96 0000 40F20000 		movw	r0, #:lower16:.LANCHOR0
  97              	.LVL1:
  98              		.loc 1 151 0
  99 0004 08B5     		push	{r3, lr}
 100              	.LCFI0:
 101              		.cfi_def_cfa_offset 8
 102              		.cfi_offset 14, -4
 103              		.cfi_offset 3, -8
 104              		.loc 1 154 0
 105 0006 0021     		movs	r1, #0
 106 0008 C0F20000 		movt	r0, #:upper16:.LANCHOR0
 107 000c FFF7FEFF 		bl	chEvtBroadcastFlags
 108              		.loc 1 155 0
 109 0010 3220     		movs	r0, #50
 110 0012 FFF7FEFF 		bl	chThdSleep
 111              		.loc 1 156 0
ARM GAS  /tmp/cchYRDRL.s 			page 3


 112 0016 40F20000 		movw	r0, #:lower16:.LANCHOR1
 113 001a C0F20000 		movt	r0, #:upper16:.LANCHOR1
 114 001e 0021     		movs	r1, #0
 115 0020 FFF7FEFF 		bl	chEvtBroadcastFlags
 116              		.loc 1 158 0
 117 0024 0020     		movs	r0, #0
 118 0026 08BD     		pop	{r3, pc}
 119              		.cfi_endproc
 120              	.LFE14:
 121              		.size	thread2, .-thread2
 122 0028 AFF30080 		.section	.text.thread1,"ax",%progbits
 122      AFF30080 
 123              		.align	2
 124              		.p2align 4,,15
 125              		.thumb
 126              		.thumb_func
 127              		.type	thread1, %function
 128              	thread1:
 129              	.LFB13:
 130              		.loc 1 144 0
 131              		.cfi_startproc
 132              		@ args = 0, pretend = 0, frame = 0
 133              		@ frame_needed = 0, uses_anonymous_args = 0
 134              	.LVL2:
 135 0000 10B5     		push	{r4, lr}
 136              	.LCFI1:
 137              		.cfi_def_cfa_offset 8
 138              		.cfi_offset 14, -4
 139              		.cfi_offset 4, -8
 140              		.loc 1 144 0
 141 0002 0446     		mov	r4, r0
 142              		.loc 1 146 0
 143 0004 3220     		movs	r0, #50
 144              	.LVL3:
 145 0006 FFF7FEFF 		bl	chThdSleep
 146              		.loc 1 147 0
 147 000a 2046     		mov	r0, r4
 148 000c 0121     		movs	r1, #1
 149 000e FFF7FEFF 		bl	chEvtSignalFlags
 150              		.loc 1 149 0
 151 0012 0020     		movs	r0, #0
 152 0014 10BD     		pop	{r4, pc}
 153              		.cfi_endproc
 154              	.LFE13:
 155              		.size	thread1, .-thread1
 156 0016 00BFAFF3 		.section	.text.evt1_execute,"ax",%progbits
 156      0080AFF3 
 156      0080
 157              		.align	2
 158              		.p2align 4,,15
 159              		.thumb
 160              		.thumb_func
 161              		.type	evt1_execute, %function
 162              	evt1_execute:
 163              	.LFB11:
 164              		.loc 1 96 0
 165              		.cfi_startproc
ARM GAS  /tmp/cchYRDRL.s 			page 4


 166              		@ args = 0, pretend = 0, frame = 24
 167              		@ frame_needed = 0, uses_anonymous_args = 0
 168 0000 10B5     		push	{r4, lr}
 169              	.LCFI2:
 170              		.cfi_def_cfa_offset 8
 171              		.cfi_offset 14, -4
 172              		.cfi_offset 4, -8
 173              		.loc 1 102 0
 174 0002 40F20004 		movw	r4, #:lower16:.LANCHOR0
 175 0006 C0F20004 		movt	r4, #:upper16:.LANCHOR0
 176              		.loc 1 96 0
 177 000a 86B0     		sub	sp, sp, #24
 178              	.LCFI3:
 179              		.cfi_def_cfa_offset 32
 180              		.loc 1 103 0
 181 000c 0122     		movs	r2, #1
 182 000e 2046     		mov	r0, r4
 183 0010 6946     		mov	r1, sp
 184              		.loc 1 102 0
 185 0012 2460     		str	r4, [r4, #0]
 186              		.loc 1 103 0
 187 0014 FFF7FEFF 		bl	chEvtRegisterMask
 188              		.loc 1 104 0
 189 0018 2046     		mov	r0, r4
 190 001a 03A9     		add	r1, sp, #12
 191 001c 0222     		movs	r2, #2
 192 001e FFF7FEFF 		bl	chEvtRegisterMask
 193              		.loc 1 105 0
 194 0022 2168     		ldr	r1, [r4, #0]
 195 0024 0120     		movs	r0, #1
 196 0026 091B     		subs	r1, r1, r4
 197 0028 18BF     		it	ne
 198 002a 0121     		movne	r1, #1
 199 002c FFF7FEFF 		bl	_test_assert
 200 0030 08B1     		cbz	r0, .L9
 201              	.L6:
 202              		.loc 1 116 0
 203 0032 06B0     		add	sp, sp, #24
 204 0034 10BD     		pop	{r4, pc}
 205              	.L9:
 206              		.loc 1 106 0
 207 0036 2046     		mov	r0, r4
 208 0038 6946     		mov	r1, sp
 209 003a FFF7FEFF 		bl	chEvtUnregister
 210              		.loc 1 107 0
 211 003e 2268     		ldr	r2, [r4, #0]
 212 0040 0220     		movs	r0, #2
 213 0042 111B     		subs	r1, r2, r4
 214 0044 18BF     		it	ne
 215 0046 0121     		movne	r1, #1
 216 0048 FFF7FEFF 		bl	_test_assert
 217 004c 0028     		cmp	r0, #0
 218 004e F0D1     		bne	.L6
 219              		.loc 1 108 0
 220 0050 2046     		mov	r0, r4
 221 0052 03A9     		add	r1, sp, #12
 222 0054 FFF7FEFF 		bl	chEvtUnregister
ARM GAS  /tmp/cchYRDRL.s 			page 5


 223              		.loc 1 109 0
 224 0058 2168     		ldr	r1, [r4, #0]
 225 005a 0320     		movs	r0, #3
 226 005c 0B1B     		subs	r3, r1, r4
 227 005e D3F1000C 		rsbs	ip, r3, #0
 228 0062 4CEB0301 		adc	r1, ip, r3
 229 0066 FFF7FEFF 		bl	_test_assert
 230 006a 0028     		cmp	r0, #0
 231 006c E1D1     		bne	.L6
 232              		.loc 1 114 0
 233 006e 40F20000 		movw	r0, #:lower16:.LANCHOR2
 234 0072 0721     		movs	r1, #7
 235 0074 C0F20000 		movt	r0, #:upper16:.LANCHOR2
 236 0078 FFF7FEFF 		bl	chEvtDispatch
 237              		.loc 1 115 0
 238 007c 40F20001 		movw	r1, #:lower16:.LC0
 239 0080 0420     		movs	r0, #4
 240 0082 C0F20001 		movt	r1, #:upper16:.LC0
 241 0086 FFF7FEFF 		bl	_test_assert_sequence
 242 008a D2E7     		b	.L6
 243              		.cfi_endproc
 244              	.LFE11:
 245              		.size	evt1_execute, .-evt1_execute
 246 008c AFF30080 		.section	.text.h3,"ax",%progbits
 247              		.align	2
 248              		.p2align 4,,15
 249              		.thumb
 250              		.thumb_func
 251              		.type	h3, %function
 252              	h3:
 253              	.LFB10:
 254              		.loc 1 93 0
 255              		.cfi_startproc
 256              		@ args = 0, pretend = 0, frame = 0
 257              		@ frame_needed = 0, uses_anonymous_args = 0
 258              		@ link register save eliminated.
 259              	.LVL4:
 260              		.loc 1 93 0
 261 0000 4320     		movs	r0, #67
 262              	.LVL5:
 263 0002 FFF7FEBF 		b	test_emit_token
 264              		.cfi_endproc
 265              	.LFE10:
 266              		.size	h3, .-h3
 267 0006 00BFAFF3 		.section	.text.h2,"ax",%progbits
 267      0080AFF3 
 267      0080
 268              		.align	2
 269              		.p2align 4,,15
 270              		.thumb
 271              		.thumb_func
 272              		.type	h2, %function
 273              	h2:
 274              	.LFB9:
 275              		.loc 1 92 0
 276              		.cfi_startproc
 277              		@ args = 0, pretend = 0, frame = 0
ARM GAS  /tmp/cchYRDRL.s 			page 6


 278              		@ frame_needed = 0, uses_anonymous_args = 0
 279              		@ link register save eliminated.
 280              	.LVL6:
 281              		.loc 1 92 0
 282 0000 4220     		movs	r0, #66
 283              	.LVL7:
 284 0002 FFF7FEBF 		b	test_emit_token
 285              		.cfi_endproc
 286              	.LFE9:
 287              		.size	h2, .-h2
 288 0006 00BFAFF3 		.section	.text.h1,"ax",%progbits
 288      0080AFF3 
 288      0080
 289              		.align	2
 290              		.p2align 4,,15
 291              		.thumb
 292              		.thumb_func
 293              		.type	h1, %function
 294              	h1:
 295              	.LFB8:
 296              		.loc 1 91 0
 297              		.cfi_startproc
 298              		@ args = 0, pretend = 0, frame = 0
 299              		@ frame_needed = 0, uses_anonymous_args = 0
 300              		@ link register save eliminated.
 301              	.LVL8:
 302              		.loc 1 91 0
 303 0000 4120     		movs	r0, #65
 304              	.LVL9:
 305 0002 FFF7FEBF 		b	test_emit_token
 306              		.cfi_endproc
 307              	.LFE8:
 308              		.size	h1, .-h1
 309 0006 00BFAFF3 		.section	.text.evt3_execute,"ax",%progbits
 309      0080AFF3 
 309      0080
 310              		.align	2
 311              		.p2align 4,,15
 312              		.thumb
 313              		.thumb_func
 314              		.type	evt3_execute, %function
 315              	evt3_execute:
 316              	.LFB17:
 317              		.loc 1 263 0
 318              		.cfi_startproc
 319              		@ args = 0, pretend = 0, frame = 0
 320              		@ frame_needed = 0, uses_anonymous_args = 0
 321              		.loc 1 269 0
 322 0000 0021     		movs	r1, #0
 323              		.loc 1 263 0
 324 0002 08B5     		push	{r3, lr}
 325              	.LCFI4:
 326              		.cfi_def_cfa_offset 8
 327              		.cfi_offset 14, -4
 328              		.cfi_offset 3, -8
 329              		.loc 1 269 0
 330 0004 4FF0FF30 		mov	r0, #-1
ARM GAS  /tmp/cchYRDRL.s 			page 7


 331 0008 FFF7FEFF 		bl	chEvtWaitOneTimeout
 332              	.LVL10:
 333              		.loc 1 270 0
 334 000c D0F10101 		rsbs	r1, r0, #1
 335 0010 38BF     		it	cc
 336 0012 0021     		movcc	r1, #0
 337 0014 0120     		movs	r0, #1
 338              	.LVL11:
 339 0016 FFF7FEFF 		bl	_test_assert
 340 001a 00B1     		cbz	r0, .L15
 341              	.L13:
 342 001c 08BD     		pop	{r3, pc}
 343              	.L15:
 344              		.loc 1 271 0
 345 001e 0146     		mov	r1, r0
 346 0020 4FF0FF30 		mov	r0, #-1
 347 0024 FFF7FEFF 		bl	chEvtWaitAnyTimeout
 348              	.LVL12:
 349              		.loc 1 272 0
 350 0028 D0F10101 		rsbs	r1, r0, #1
 351 002c 38BF     		it	cc
 352 002e 0021     		movcc	r1, #0
 353 0030 0220     		movs	r0, #2
 354              	.LVL13:
 355 0032 FFF7FEFF 		bl	_test_assert
 356 0036 0028     		cmp	r0, #0
 357 0038 F0D1     		bne	.L13
 358              		.loc 1 273 0
 359 003a 0146     		mov	r1, r0
 360 003c 4FF0FF30 		mov	r0, #-1
 361 0040 FFF7FEFF 		bl	chEvtWaitAllTimeout
 362              	.LVL14:
 363              		.loc 1 274 0
 364 0044 D0F10101 		rsbs	r1, r0, #1
 365 0048 38BF     		it	cc
 366 004a 0021     		movcc	r1, #0
 367 004c 0320     		movs	r0, #3
 368              	.LVL15:
 369 004e FFF7FEFF 		bl	_test_assert
 370 0052 0028     		cmp	r0, #0
 371 0054 E2D1     		bne	.L13
 372              	.LBB4:
 373              	.LBB5:
 374              		.loc 1 275 0
 375 0056 0A21     		movs	r1, #10
 376 0058 4FF0FF30 		mov	r0, #-1
 377 005c FFF7FEFF 		bl	chEvtWaitOneTimeout
 378              	.LVL16:
 379              		.loc 1 276 0
 380 0060 D0F10101 		rsbs	r1, r0, #1
 381 0064 38BF     		it	cc
 382 0066 0021     		movcc	r1, #0
 383 0068 0420     		movs	r0, #4
 384              	.LVL17:
 385 006a FFF7FEFF 		bl	_test_assert
 386 006e 0028     		cmp	r0, #0
 387 0070 D4D1     		bne	.L13
ARM GAS  /tmp/cchYRDRL.s 			page 8


 388              		.loc 1 277 0
 389 0072 0A21     		movs	r1, #10
 390 0074 4FF0FF30 		mov	r0, #-1
 391 0078 FFF7FEFF 		bl	chEvtWaitAnyTimeout
 392              	.LVL18:
 393              		.loc 1 278 0
 394 007c D0F10101 		rsbs	r1, r0, #1
 395 0080 38BF     		it	cc
 396 0082 0021     		movcc	r1, #0
 397 0084 0520     		movs	r0, #5
 398              	.LVL19:
 399 0086 FFF7FEFF 		bl	_test_assert
 400 008a 0028     		cmp	r0, #0
 401 008c C6D1     		bne	.L13
 402              		.loc 1 279 0
 403 008e 0A21     		movs	r1, #10
 404 0090 4FF0FF30 		mov	r0, #-1
 405 0094 FFF7FEFF 		bl	chEvtWaitAllTimeout
 406              	.LVL20:
 407              		.loc 1 280 0
 408 0098 D0F10101 		rsbs	r1, r0, #1
 409 009c 38BF     		it	cc
 410 009e 0021     		movcc	r1, #0
 411 00a0 0620     		movs	r0, #6
 412              	.LVL21:
 413              	.LBE5:
 414              	.LBE4:
 415              		.loc 1 281 0
 416 00a2 BDE80840 		pop	{r3, lr}
 417              	.LBB7:
 418              	.LBB6:
 419              		.loc 1 280 0
 420 00a6 FFF7FEBF 		b	_test_assert
 421              	.LBE6:
 422              	.LBE7:
 423              		.cfi_endproc
 424              	.LFE17:
 425              		.size	evt3_execute, .-evt3_execute
 426 00aa 00BFAFF3 		.section	.text.evt2_execute,"ax",%progbits
 426      0080
 427              		.align	2
 428              		.p2align 4,,15
 429              		.thumb
 430              		.thumb_func
 431              		.type	evt2_execute, %function
 432              	evt2_execute:
 433              	.LFB15:
 434              		.loc 1 160 0
 435              		.cfi_startproc
 436              		@ args = 0, pretend = 0, frame = 24
 437              		@ frame_needed = 0, uses_anonymous_args = 0
 438 0000 2DE9F043 		push	{r4, r5, r6, r7, r8, r9, lr}
 439              	.LCFI5:
 440              		.cfi_def_cfa_offset 28
 441              		.cfi_offset 14, -4
 442              		.cfi_offset 9, -8
 443              		.cfi_offset 8, -12
ARM GAS  /tmp/cchYRDRL.s 			page 9


 444              		.cfi_offset 7, -16
 445              		.cfi_offset 6, -20
 446              		.cfi_offset 5, -24
 447              		.cfi_offset 4, -28
 448              		.loc 1 168 0
 449 0004 0520     		movs	r0, #5
 450              		.loc 1 160 0
 451 0006 89B0     		sub	sp, sp, #36
 452              	.LCFI6:
 453              		.cfi_def_cfa_offset 64
 454              		.loc 1 168 0
 455 0008 FFF7FEFF 		bl	chEvtAddFlags
 456              		.loc 1 169 0
 457 000c 4FF0FF30 		mov	r0, #-1
 458 0010 FFF7FEFF 		bl	chEvtWaitOne
 459              	.LVL22:
 460              		.loc 1 170 0
 461 0014 A0F10100 		sub	r0, r0, #1
 462              	.LVL23:
 463 0018 4142     		rsbs	r1, r0, #0
 464 001a 41EB0001 		adc	r1, r1, r0
 465 001e 0120     		movs	r0, #1
 466              	.LVL24:
 467 0020 FFF7FEFF 		bl	_test_assert
 468 0024 10B1     		cbz	r0, .L18
 469              	.L16:
 470              		.loc 1 233 0
 471 0026 09B0     		add	sp, sp, #36
 472 0028 BDE8F083 		pop	{r4, r5, r6, r7, r8, r9, pc}
 473              	.L18:
 474              		.loc 1 171 0
 475 002c 4FF0FF30 		mov	r0, #-1
 476 0030 FFF7FEFF 		bl	chEvtWaitOne
 477              	.LVL25:
 478              		.loc 1 172 0
 479 0034 A0F10403 		sub	r3, r0, #4
 480 0038 5A42     		rsbs	r2, r3, #0
 481 003a 42EB0301 		adc	r1, r2, r3
 482 003e 0220     		movs	r0, #2
 483              	.LVL26:
 484 0040 FFF7FEFF 		bl	_test_assert
 485              	.LVL27:
 486 0044 0028     		cmp	r0, #0
 487 0046 EED1     		bne	.L16
 488              		.loc 1 173 0
 489 0048 4FF0FF30 		mov	r0, #-1
 490 004c FFF7FEFF 		bl	chEvtClearFlags
 491              	.LVL28:
 492              		.loc 1 174 0
 493 0050 D0F10101 		rsbs	r1, r0, #1
 494 0054 38BF     		it	cc
 495 0056 0021     		movcc	r1, #0
 496 0058 0320     		movs	r0, #3
 497              	.LVL29:
 498 005a FFF7FEFF 		bl	_test_assert
 499 005e 0028     		cmp	r0, #0
 500 0060 E1D1     		bne	.L16
ARM GAS  /tmp/cchYRDRL.s 			page 10


 501              	.LBB10:
 502              	.LBB11:
 503              		.loc 1 181 0
 504 0062 40F20006 		movw	r6, #:lower16:rlist
 505 0066 C0F20006 		movt	r6, #:upper16:rlist
 506              		.loc 1 179 0
 507 006a FFF7FEFF 		bl	test_wait_tick
 508              		.loc 1 181 0
 509 006e 40F20005 		movw	r5, #:lower16:wa
 510 0072 F469     		ldr	r4, [r6, #28]
 511 0074 C0F20005 		movt	r5, #:upper16:wa
 512 0078 A768     		ldr	r7, [r4, #8]
 513 007a D5F80080 		ldr	r8, [r5, #0]
 514 007e 40F20003 		movw	r3, #:lower16:thread1
 515              		.loc 1 180 0
 516 0082 40F20005 		movw	r5, #:lower16:vtlist
 517              		.loc 1 181 0
 518 0086 7A1E     		subs	r2, r7, #1
 519 0088 4FF49871 		mov	r1, #304
 520 008c C0F20003 		movt	r3, #:upper16:thread1
 521              		.loc 1 180 0
 522 0090 C0F20005 		movt	r5, #:upper16:vtlist
 523              		.loc 1 181 0
 524 0094 4046     		mov	r0, r8
 525              		.loc 1 180 0
 526 0096 EF68     		ldr	r7, [r5, #12]
 527              	.LVL30:
 528              		.loc 1 181 0
 529 0098 0094     		str	r4, [sp, #0]
 530 009a FFF7FEFF 		bl	chThdCreateStatic
 531 009e 40F20004 		movw	r4, #:lower16:threads
 532 00a2 C0F20004 		movt	r4, #:upper16:threads
 533 00a6 2060     		str	r0, [r4, #0]
 534              		.loc 1 183 0
 535 00a8 4FF0FF30 		mov	r0, #-1
 536 00ac FFF7FEFF 		bl	chEvtWaitOne
 537              		.loc 1 184 0
 538 00b0 07F13201 		add	r1, r7, #50
 539              		.loc 1 183 0
 540 00b4 8146     		mov	r9, r0
 541              	.LVL31:
 542              		.loc 1 184 0
 543 00b6 07F13702 		add	r2, r7, #55
 544 00ba 0420     		movs	r0, #4
 545              	.LVL32:
 546 00bc FFF7FEFF 		bl	_test_assert_time_window
 547 00c0 0028     		cmp	r0, #0
 548 00c2 B0D1     		bne	.L16
 549              		.loc 1 185 0
 550 00c4 A9F10101 		sub	r1, r9, #1
 551 00c8 0520     		movs	r0, #5
 552 00ca D1F1000C 		rsbs	ip, r1, #0
 553 00ce 4CEB0101 		adc	r1, ip, r1
 554 00d2 FFF7FEFF 		bl	_test_assert
 555 00d6 0028     		cmp	r0, #0
 556 00d8 A5D1     		bne	.L16
 557              		.loc 1 186 0
ARM GAS  /tmp/cchYRDRL.s 			page 11


 558 00da 4FF0FF30 		mov	r0, #-1
 559 00de FFF7FEFF 		bl	chEvtClearFlags
 560              	.LVL33:
 561              		.loc 1 187 0
 562 00e2 D0F10101 		rsbs	r1, r0, #1
 563 00e6 38BF     		it	cc
 564 00e8 0021     		movcc	r1, #0
 565 00ea 0620     		movs	r0, #6
 566              	.LVL34:
 567 00ec FFF7FEFF 		bl	_test_assert
 568 00f0 0028     		cmp	r0, #0
 569 00f2 98D1     		bne	.L16
 570              		.loc 1 188 0
 571 00f4 FFF7FEFF 		bl	test_wait_threads
 572              		.loc 1 193 0
 573 00f8 0520     		movs	r0, #5
 574 00fa FFF7FEFF 		bl	chEvtAddFlags
 575              		.loc 1 194 0
 576 00fe 4FF0FF30 		mov	r0, #-1
 577 0102 FFF7FEFF 		bl	chEvtWaitAny
 578              	.LVL35:
 579              		.loc 1 195 0
 580 0106 A0F10502 		sub	r2, r0, #5
 581 010a 5042     		rsbs	r0, r2, #0
 582              	.LVL36:
 583 010c 40EB0201 		adc	r1, r0, r2
 584 0110 0720     		movs	r0, #7
 585 0112 FFF7FEFF 		bl	_test_assert
 586              	.LVL37:
 587 0116 0028     		cmp	r0, #0
 588 0118 85D1     		bne	.L16
 589              		.loc 1 196 0
 590 011a 4FF0FF30 		mov	r0, #-1
 591 011e FFF7FEFF 		bl	chEvtClearFlags
 592              	.LVL38:
 593              		.loc 1 197 0
 594 0122 D0F10101 		rsbs	r1, r0, #1
 595 0126 38BF     		it	cc
 596 0128 0021     		movcc	r1, #0
 597 012a 0820     		movs	r0, #8
 598              	.LVL39:
 599 012c FFF7FEFF 		bl	_test_assert
 600 0130 0028     		cmp	r0, #0
 601 0132 7FF478AF 		bne	.L16
 602              		.loc 1 202 0
 603 0136 FFF7FEFF 		bl	test_wait_tick
 604              		.loc 1 204 0
 605 013a D6F81CE0 		ldr	lr, [r6, #28]
 606 013e 40F20003 		movw	r3, #:lower16:thread1
 607 0142 DEF80870 		ldr	r7, [lr, #8]
 608              	.LVL40:
 609 0146 4FF49871 		mov	r1, #304
 610 014a 7A1E     		subs	r2, r7, #1
 611 014c C0F20003 		movt	r3, #:upper16:thread1
 612 0150 4046     		mov	r0, r8
 613              		.loc 1 203 0
 614 0152 EF68     		ldr	r7, [r5, #12]
ARM GAS  /tmp/cchYRDRL.s 			page 12


 615              	.LVL41:
 616              		.loc 1 204 0
 617 0154 CDF800E0 		str	lr, [sp, #0]
 618 0158 FFF7FEFF 		bl	chThdCreateStatic
 619 015c 2060     		str	r0, [r4, #0]
 620              		.loc 1 206 0
 621 015e 4FF0FF30 		mov	r0, #-1
 622 0162 FFF7FEFF 		bl	chEvtWaitAny
 623              		.loc 1 207 0
 624 0166 07F13201 		add	r1, r7, #50
 625              		.loc 1 206 0
 626 016a 8146     		mov	r9, r0
 627              	.LVL42:
 628              		.loc 1 207 0
 629 016c 07F13702 		add	r2, r7, #55
 630 0170 0920     		movs	r0, #9
 631              	.LVL43:
 632 0172 FFF7FEFF 		bl	_test_assert_time_window
 633 0176 0028     		cmp	r0, #0
 634 0178 7FF455AF 		bne	.L16
 635              		.loc 1 208 0
 636 017c A9F10101 		sub	r1, r9, #1
 637 0180 0A20     		movs	r0, #10
 638 0182 4B42     		rsbs	r3, r1, #0
 639 0184 43EB0101 		adc	r1, r3, r1
 640 0188 FFF7FEFF 		bl	_test_assert
 641 018c 0028     		cmp	r0, #0
 642 018e 7FF44AAF 		bne	.L16
 643              		.loc 1 209 0
 644 0192 4FF0FF30 		mov	r0, #-1
 645 0196 FFF7FEFF 		bl	chEvtClearFlags
 646              	.LVL44:
 647              		.loc 1 210 0
 648 019a D0F10101 		rsbs	r1, r0, #1
 649 019e 38BF     		it	cc
 650 01a0 0021     		movcc	r1, #0
 651 01a2 0B20     		movs	r0, #11
 652              	.LVL45:
 653 01a4 FFF7FEFF 		bl	_test_assert
 654 01a8 0028     		cmp	r0, #0
 655 01aa 7FF43CAF 		bne	.L16
 656              		.loc 1 216 0
 657 01ae 40F20007 		movw	r7, #:lower16:.LANCHOR0
 658              	.LVL46:
 659              		.loc 1 217 0
 660 01b2 40F20009 		movw	r9, #:lower16:.LANCHOR1
 661              		.loc 1 216 0
 662 01b6 C0F20007 		movt	r7, #:upper16:.LANCHOR0
 663              		.loc 1 217 0
 664 01ba C0F20009 		movt	r9, #:upper16:.LANCHOR1
 665              		.loc 1 211 0
 666 01be FFF7FEFF 		bl	test_wait_threads
 667              		.loc 1 218 0
 668 01c2 3846     		mov	r0, r7
 669 01c4 02A9     		add	r1, sp, #8
 670 01c6 0122     		movs	r2, #1
 671              		.loc 1 216 0
ARM GAS  /tmp/cchYRDRL.s 			page 13


 672 01c8 3F60     		str	r7, [r7, #0]
 673              		.loc 1 217 0
 674 01ca C9F80090 		str	r9, [r9, #0]
 675              		.loc 1 218 0
 676 01ce FFF7FEFF 		bl	chEvtRegisterMask
 677              		.loc 1 219 0
 678 01d2 05A9     		add	r1, sp, #20
 679 01d4 0422     		movs	r2, #4
 680 01d6 4846     		mov	r0, r9
 681 01d8 FFF7FEFF 		bl	chEvtRegisterMask
 682              		.loc 1 220 0
 683 01dc FFF7FEFF 		bl	test_wait_tick
 684              		.loc 1 222 0
 685 01e0 F269     		ldr	r2, [r6, #28]
 686 01e2 40F20003 		movw	r3, #:lower16:thread2
 687 01e6 9068     		ldr	r0, [r2, #8]
 688 01e8 40F20006 		movw	r6, #:lower16:.LC1
 689 01ec 421E     		subs	r2, r0, #1
 690 01ee 4FF49871 		mov	r1, #304
 691 01f2 C0F20003 		movt	r3, #:upper16:thread2
 692 01f6 C0F20006 		movt	r6, #:upper16:.LC1
 693 01fa 4046     		mov	r0, r8
 694              		.loc 1 221 0
 695 01fc ED68     		ldr	r5, [r5, #12]
 696              	.LVL47:
 697              		.loc 1 222 0
 698 01fe 0096     		str	r6, [sp, #0]
 699 0200 FFF7FEFF 		bl	chThdCreateStatic
 700 0204 2060     		str	r0, [r4, #0]
 701              		.loc 1 224 0
 702 0206 0520     		movs	r0, #5
 703 0208 FFF7FEFF 		bl	chEvtWaitAll
 704              		.loc 1 225 0
 705 020c 0C20     		movs	r0, #12
 706 020e 05F13201 		add	r1, r5, #50
 707 0212 05F13702 		add	r2, r5, #55
 708 0216 FFF7FEFF 		bl	_test_assert_time_window
 709 021a 0028     		cmp	r0, #0
 710 021c 7FF403AF 		bne	.L16
 711              		.loc 1 226 0
 712 0220 4FF0FF30 		mov	r0, #-1
 713 0224 FFF7FEFF 		bl	chEvtClearFlags
 714              	.LVL48:
 715              		.loc 1 227 0
 716 0228 D0F10101 		rsbs	r1, r0, #1
 717 022c 38BF     		it	cc
 718 022e 0021     		movcc	r1, #0
 719 0230 0D20     		movs	r0, #13
 720              	.LVL49:
 721 0232 FFF7FEFF 		bl	_test_assert
 722 0236 0028     		cmp	r0, #0
 723 0238 7FF4F5AE 		bne	.L16
 724              		.loc 1 228 0
 725 023c FFF7FEFF 		bl	test_wait_threads
 726              		.loc 1 229 0
 727 0240 3846     		mov	r0, r7
 728 0242 02A9     		add	r1, sp, #8
ARM GAS  /tmp/cchYRDRL.s 			page 14


 729 0244 FFF7FEFF 		bl	chEvtUnregister
 730              		.loc 1 230 0
 731 0248 4846     		mov	r0, r9
 732 024a 05A9     		add	r1, sp, #20
 733 024c FFF7FEFF 		bl	chEvtUnregister
 734              		.loc 1 231 0
 735 0250 3A68     		ldr	r2, [r7, #0]
 736 0252 0E20     		movs	r0, #14
 737 0254 D11B     		subs	r1, r2, r7
 738 0256 4B42     		rsbs	r3, r1, #0
 739 0258 43EB0101 		adc	r1, r3, r1
 740 025c FFF7FEFF 		bl	_test_assert
 741 0260 0028     		cmp	r0, #0
 742 0262 7FF4E0AE 		bne	.L16
 743              		.loc 1 232 0
 744 0266 D9F80020 		ldr	r2, [r9, #0]
 745 026a 0F20     		movs	r0, #15
 746 026c C9EB0201 		rsb	r1, r9, r2
 747 0270 4B42     		rsbs	r3, r1, #0
 748 0272 43EB0101 		adc	r1, r3, r1
 749 0276 FFF7FEFF 		bl	_test_assert
 750 027a D4E6     		b	.L16
 751              	.LBE11:
 752              	.LBE10:
 753              		.cfi_endproc
 754              	.LFE15:
 755              		.size	evt2_execute, .-evt2_execute
 756              		.global	patternevt
 757              		.global	testevt3
 758              		.global	testevt2
 759              		.global	testevt1
 760 027c AFF30080 		.section	.rodata.patternevt,"a",%progbits
 761              		.align	2
 762              		.type	patternevt, %object
 763              		.size	patternevt, 16
 764              	patternevt:
 765 0000 00000000 		.word	testevt1
 766 0004 00000000 		.word	testevt2
 767 0008 00000000 		.word	testevt3
 768 000c 00000000 		.word	0
 769              		.section	.rodata.testevt2,"a",%progbits
 770              		.align	2
 771              		.type	testevt2, %object
 772              		.size	testevt2, 16
 773              	testevt2:
 774 0000 1C000000 		.word	.LC3
 775 0004 00000000 		.word	evt2_setup
 776 0008 00000000 		.word	0
 777 000c 00000000 		.word	evt2_execute
 778              		.section	.rodata.str1.4,"aMS",%progbits,1
 779              		.align	2
 780              	.LC0:
 781 0000 41424300 		.ascii	"ABC\000"
 782              	.LC1:
 783 0004 4100     		.ascii	"A\000"
 784 0006 0000     		.space	2
 785              	.LC2:
ARM GAS  /tmp/cchYRDRL.s 			page 15


 786 0008 4576656E 		.ascii	"Events, timeouts\000"
 786      74732C20 
 786      74696D65 
 786      6F757473 
 786      00
 787 0019 000000   		.space	3
 788              	.LC3:
 789 001c 4576656E 		.ascii	"Events, wait and broadcast\000"
 789      74732C20 
 789      77616974 
 789      20616E64 
 789      2062726F 
 790 0037 00       		.space	1
 791              	.LC4:
 792 0038 4576656E 		.ascii	"Events, registration and dispatch\000"
 792      74732C20 
 792      72656769 
 792      73747261 
 792      74696F6E 
 793 005a 0000     		.section	.rodata.testevt1,"a",%progbits
 794              		.align	2
 795              		.type	testevt1, %object
 796              		.size	testevt1, 16
 797              	testevt1:
 798 0000 38000000 		.word	.LC4
 799 0004 00000000 		.word	evt1_setup
 800 0008 00000000 		.word	0
 801 000c 00000000 		.word	evt1_execute
 802              		.section	.rodata.evhndl,"a",%progbits
 803              		.align	2
 804              		.set	.LANCHOR2,. + 0
 805              		.type	evhndl, %object
 806              		.size	evhndl, 12
 807              	evhndl:
 808 0000 00000000 		.word	h1
 809 0004 00000000 		.word	h2
 810 0008 00000000 		.word	h3
 811              		.section	.rodata.testevt3,"a",%progbits
 812              		.align	2
 813              		.type	testevt3, %object
 814              		.size	testevt3, 16
 815              	testevt3:
 816 0000 08000000 		.word	.LC2
 817 0004 00000000 		.word	evt3_setup
 818 0008 00000000 		.word	0
 819 000c 00000000 		.word	evt3_execute
 820              		.section	.data.es1,"aw",%progbits
 821              		.align	2
 822              		.set	.LANCHOR0,. + 0
 823              		.type	es1, %object
 824              		.size	es1, 4
 825              	es1:
 826 0000 00000000 		.word	es1
 827              		.section	.data.es2,"aw",%progbits
 828              		.align	2
 829              		.set	.LANCHOR1,. + 0
 830              		.type	es2, %object
ARM GAS  /tmp/cchYRDRL.s 			page 16


 831              		.size	es2, 4
 832              	es2:
 833 0000 00000000 		.word	es2
 834              		.text
 835              	.Letext0:
 836              		.file 2 "/opt/arm-2011q3/bin/../lib/gcc/arm-none-eabi/4.6.1/../../../../arm-none-eabi/include/stdi
 837              		.file 3 "../../os/ports/GCC/ARMCMx/chtypes.h"
 838              		.file 4 "../../os/kernel/include/chlists.h"
 839              		.file 5 "../../os/kernel/include/chthreads.h"
 840              		.file 6 "../../os/ports/GCC/ARMCMx/chcore_v7m.h"
 841              		.file 7 "../../os/kernel/include/chvt.h"
 842              		.file 8 "../../os/kernel/include/chschd.h"
 843              		.file 9 "../../os/kernel/include/chmtx.h"
 844              		.file 10 "../../os/kernel/include/chevents.h"
 845              		.file 11 "../../test/test.h"
