ARM GAS  /tmp/ccZWv9k3.s 			page 1


   1              		.syntax unified
   2              		.cpu cortex-m3
   3              		.fpu softvfp
   4              		.eabi_attribute 20, 1
   5              		.eabi_attribute 21, 1
   6              		.eabi_attribute 23, 3
   7              		.eabi_attribute 24, 1
   8              		.eabi_attribute 25, 1
   9              		.eabi_attribute 26, 1
  10              		.eabi_attribute 30, 2
  11              		.eabi_attribute 34, 1
  12              		.eabi_attribute 18, 4
  13              		.thumb
  14              		.file	"testpools.c"
  15              		.text
  16              	.Ltext0:
  17              		.cfi_sections	.debug_frame
  18              		.section	.text.null_provider,"ax",%progbits
  19              		.align	2
  20              		.p2align 4,,15
  21              		.thumb
  22              		.thumb_func
  23              		.type	null_provider, %function
  24              	null_provider:
  25              	.LFB7:
  26              		.file 1 "../../test/testpools.c"
  27              		.loc 1 71 0
  28              		.cfi_startproc
  29              		@ args = 0, pretend = 0, frame = 0
  30              		@ frame_needed = 0, uses_anonymous_args = 0
  31              		@ link register save eliminated.
  32              	.LVL0:
  33              		.loc 1 75 0
  34 0000 0020     		movs	r0, #0
  35              	.LVL1:
  36 0002 7047     		bx	lr
  37              		.cfi_endproc
  38              	.LFE7:
  39              		.size	null_provider, .-null_provider
  40 0004 AFF30080 		.section	.text.pools1_setup,"ax",%progbits
  40      AFF30080 
  40      AFF30080 
  41              		.align	2
  42              		.p2align 4,,15
  43              		.thumb
  44              		.thumb_func
  45              		.type	pools1_setup, %function
  46              	pools1_setup:
  47              	.LFB8:
  48              		.loc 1 77 0
  49              		.cfi_startproc
  50              		@ args = 0, pretend = 0, frame = 0
  51              		@ frame_needed = 0, uses_anonymous_args = 0
  52              		@ link register save eliminated.
  53              		.loc 1 79 0
  54 0000 40F20000 		movw	r0, #:lower16:.LANCHOR0
  55 0004 C0F20000 		movt	r0, #:upper16:.LANCHOR0
ARM GAS  /tmp/ccZWv9k3.s 			page 2


  56 0008 4FF49871 		mov	r1, #304
  57 000c 0022     		movs	r2, #0
  58              		.loc 1 80 0
  59              		.loc 1 79 0
  60 000e FFF7FEBF 		b	chPoolInit
  61              		.cfi_endproc
  62              	.LFE8:
  63              		.size	pools1_setup, .-pools1_setup
  64 0012 00BFAFF3 		.section	.text.pools1_execute,"ax",%progbits
  64      0080AFF3 
  64      0080AFF3 
  64      0080
  65              		.align	2
  66              		.p2align 4,,15
  67              		.thumb
  68              		.thumb_func
  69              		.type	pools1_execute, %function
  70              	pools1_execute:
  71              	.LFB9:
  72              		.loc 1 82 0
  73              		.cfi_startproc
  74              		@ args = 0, pretend = 0, frame = 0
  75              		@ frame_needed = 0, uses_anonymous_args = 0
  76              	.LVL2:
  77 0000 10B5     		push	{r4, lr}
  78              	.LCFI0:
  79              		.cfi_def_cfa_offset 8
  80              		.cfi_offset 14, -4
  81              		.cfi_offset 4, -8
  82              		.loc 1 87 0
  83 0002 40F20004 		movw	r4, #:lower16:wa
  84 0006 C0F20004 		movt	r4, #:upper16:wa
  85 000a 40F20000 		movw	r0, #:lower16:.LANCHOR0
  86 000e C0F20000 		movt	r0, #:upper16:.LANCHOR0
  87 0012 2168     		ldr	r1, [r4, #0]
  88 0014 FFF7FEFF 		bl	chPoolFree
  89              	.LVL3:
  90 0018 40F20000 		movw	r0, #:lower16:.LANCHOR0
  91 001c C0F20000 		movt	r0, #:upper16:.LANCHOR0
  92 0020 6168     		ldr	r1, [r4, #4]
  93 0022 FFF7FEFF 		bl	chPoolFree
  94              	.LVL4:
  95 0026 40F20000 		movw	r0, #:lower16:.LANCHOR0
  96 002a C0F20000 		movt	r0, #:upper16:.LANCHOR0
  97 002e A168     		ldr	r1, [r4, #8]
  98 0030 FFF7FEFF 		bl	chPoolFree
  99              	.LVL5:
 100 0034 40F20000 		movw	r0, #:lower16:.LANCHOR0
 101 0038 C0F20000 		movt	r0, #:upper16:.LANCHOR0
 102 003c E168     		ldr	r1, [r4, #12]
 103 003e FFF7FEFF 		bl	chPoolFree
 104              	.LVL6:
 105 0042 40F20000 		movw	r0, #:lower16:.LANCHOR0
 106 0046 2169     		ldr	r1, [r4, #16]
 107 0048 C0F20000 		movt	r0, #:upper16:.LANCHOR0
 108 004c FFF7FEFF 		bl	chPoolFree
 109              	.LVL7:
ARM GAS  /tmp/ccZWv9k3.s 			page 3


 110              		.loc 1 91 0
 111 0050 40F20000 		movw	r0, #:lower16:.LANCHOR0
 112 0054 C0F20000 		movt	r0, #:upper16:.LANCHOR0
 113 0058 FFF7FEFF 		bl	chPoolAlloc
 114 005c 011C     		adds	r1, r0, #0
 115 005e 18BF     		it	ne
 116 0060 0121     		movne	r1, #1
 117 0062 0120     		movs	r0, #1
 118 0064 FFF7FEFF 		bl	_test_assert
 119 0068 0028     		cmp	r0, #0
 120 006a 41D1     		bne	.L3
 121              	.LVL8:
 122 006c 40F20000 		movw	r0, #:lower16:.LANCHOR0
 123 0070 C0F20000 		movt	r0, #:upper16:.LANCHOR0
 124 0074 FFF7FEFF 		bl	chPoolAlloc
 125 0078 011C     		adds	r1, r0, #0
 126 007a 18BF     		it	ne
 127 007c 0121     		movne	r1, #1
 128 007e 0120     		movs	r0, #1
 129 0080 FFF7FEFF 		bl	_test_assert
 130 0084 A0BB     		cbnz	r0, .L3
 131              	.LVL9:
 132 0086 40F20000 		movw	r0, #:lower16:.LANCHOR0
 133 008a C0F20000 		movt	r0, #:upper16:.LANCHOR0
 134 008e FFF7FEFF 		bl	chPoolAlloc
 135 0092 011C     		adds	r1, r0, #0
 136 0094 18BF     		it	ne
 137 0096 0121     		movne	r1, #1
 138 0098 0120     		movs	r0, #1
 139 009a FFF7FEFF 		bl	_test_assert
 140 009e 38BB     		cbnz	r0, .L3
 141              	.LVL10:
 142 00a0 40F20000 		movw	r0, #:lower16:.LANCHOR0
 143 00a4 C0F20000 		movt	r0, #:upper16:.LANCHOR0
 144 00a8 FFF7FEFF 		bl	chPoolAlloc
 145 00ac 011C     		adds	r1, r0, #0
 146 00ae 18BF     		it	ne
 147 00b0 0121     		movne	r1, #1
 148 00b2 0120     		movs	r0, #1
 149 00b4 FFF7FEFF 		bl	_test_assert
 150 00b8 D0B9     		cbnz	r0, .L3
 151              	.LVL11:
 152 00ba 40F20000 		movw	r0, #:lower16:.LANCHOR0
 153 00be C0F20000 		movt	r0, #:upper16:.LANCHOR0
 154 00c2 FFF7FEFF 		bl	chPoolAlloc
 155 00c6 011C     		adds	r1, r0, #0
 156 00c8 18BF     		it	ne
 157 00ca 0121     		movne	r1, #1
 158 00cc 0120     		movs	r0, #1
 159 00ce FFF7FEFF 		bl	_test_assert
 160 00d2 68B9     		cbnz	r0, .L3
 161              	.LVL12:
 162              		.loc 1 94 0
 163 00d4 40F20000 		movw	r0, #:lower16:.LANCHOR0
 164 00d8 C0F20000 		movt	r0, #:upper16:.LANCHOR0
 165 00dc FFF7FEFF 		bl	chPoolAlloc
 166 00e0 D0F10101 		rsbs	r1, r0, #1
ARM GAS  /tmp/ccZWv9k3.s 			page 4


 167 00e4 38BF     		it	cc
 168 00e6 0021     		movcc	r1, #0
 169 00e8 0220     		movs	r0, #2
 170 00ea FFF7FEFF 		bl	_test_assert
 171 00ee 00B1     		cbz	r0, .L6
 172              	.LVL13:
 173              	.L3:
 174 00f0 10BD     		pop	{r4, pc}
 175              	.LVL14:
 176              	.L6:
 177              	.LBB4:
 178              	.LBB5:
 179              		.loc 1 97 0
 180 00f2 40F20000 		movw	r0, #:lower16:.LANCHOR0
 181 00f6 40F20002 		movw	r2, #:lower16:null_provider
 182 00fa 1021     		movs	r1, #16
 183 00fc C0F20002 		movt	r2, #:upper16:null_provider
 184 0100 C0F20000 		movt	r0, #:upper16:.LANCHOR0
 185 0104 FFF7FEFF 		bl	chPoolInit
 186              		.loc 1 98 0
 187 0108 40F20000 		movw	r0, #:lower16:.LANCHOR0
 188 010c C0F20000 		movt	r0, #:upper16:.LANCHOR0
 189 0110 FFF7FEFF 		bl	chPoolAlloc
 190 0114 D0F10101 		rsbs	r1, r0, #1
 191 0118 38BF     		it	cc
 192 011a 0021     		movcc	r1, #0
 193 011c 0320     		movs	r0, #3
 194              	.LBE5:
 195              	.LBE4:
 196              		.loc 1 99 0
 197 011e BDE81040 		pop	{r4, lr}
 198              	.LBB7:
 199              	.LBB6:
 200              		.loc 1 98 0
 201 0122 FFF7FEBF 		b	_test_assert
 202              	.LBE6:
 203              	.LBE7:
 204              		.cfi_endproc
 205              	.LFE9:
 206              		.size	pools1_execute, .-pools1_execute
 207              		.global	patternpools
 208              		.global	testpools1
 209 0126 00BFAFF3 		.section	.rodata.str1.4,"aMS",%progbits,1
 209      0080AFF3 
 209      0080
 210              		.align	2
 211              	.LC0:
 212 0000 4D656D6F 		.ascii	"Memory Pools, queue/dequeue\000"
 212      72792050 
 212      6F6F6C73 
 212      2C207175 
 212      6575652F 
 213              		.section	.rodata.patternpools,"a",%progbits
 214              		.align	2
 215              		.type	patternpools, %object
 216              		.size	patternpools, 8
 217              	patternpools:
ARM GAS  /tmp/ccZWv9k3.s 			page 5


 218 0000 00000000 		.word	testpools1
 219 0004 00000000 		.word	0
 220              		.section	.data.mp1,"aw",%progbits
 221              		.align	2
 222              		.set	.LANCHOR0,. + 0
 223              		.type	mp1, %object
 224              		.size	mp1, 12
 225              	mp1:
 226 0000 00000000 		.word	0
 227 0004 30010000 		.word	304
 228 0008 00000000 		.word	0
 229              		.section	.rodata.testpools1,"a",%progbits
 230              		.align	2
 231              		.type	testpools1, %object
 232              		.size	testpools1, 16
 233              	testpools1:
 234 0000 00000000 		.word	.LC0
 235 0004 00000000 		.word	pools1_setup
 236 0008 00000000 		.word	0
 237 000c 00000000 		.word	pools1_execute
 238              		.text
 239              	.Letext0:
 240              		.file 2 "/opt/arm-2011q3/bin/../lib/gcc/arm-none-eabi/4.6.1/include/stddef.h"
 241              		.file 3 "../../os/kernel/include/chmemcore.h"
 242              		.file 4 "../../os/kernel/include/chmempools.h"
 243              		.file 5 "../../test/test.h"
